{
	"bankContract.sol": {
		"Bank": {
			"abi": [
				{
					"inputs": [],
					"stateMutability": "nonpayable",
					"type": "constructor"
				},
				{
					"inputs": [],
					"name": "admin",
					"outputs": [
						{
							"internalType": "address",
							"name": "",
							"type": "address"
						}
					],
					"stateMutability": "view",
					"type": "function"
				},
				{
					"inputs": [
						{
							"internalType": "address",
							"name": "",
							"type": "address"
						}
					],
					"name": "balances",
					"outputs": [
						{
							"internalType": "uint256",
							"name": "",
							"type": "uint256"
						}
					],
					"stateMutability": "view",
					"type": "function"
				},
				{
					"inputs": [],
					"name": "getTopUsers",
					"outputs": [
						{
							"internalType": "address[3]",
							"name": "",
							"type": "address[3]"
						},
						{
							"internalType": "uint256[3]",
							"name": "",
							"type": "uint256[3]"
						}
					],
					"stateMutability": "view",
					"type": "function"
				},
				{
					"inputs": [
						{
							"internalType": "uint256",
							"name": "",
							"type": "uint256"
						}
					],
					"name": "topUsers",
					"outputs": [
						{
							"internalType": "address",
							"name": "",
							"type": "address"
						}
					],
					"stateMutability": "view",
					"type": "function"
				},
				{
					"inputs": [],
					"name": "withdraw",
					"outputs": [],
					"stateMutability": "nonpayable",
					"type": "function"
				},
				{
					"stateMutability": "payable",
					"type": "receive"
				}
			],
			"devdoc": {
				"kind": "dev",
				"methods": {},
				"version": 1
			},
			"evm": {
				"assembly": "    /* \"bankContract.sol\":58:1946  contract Bank {... */\n  mstore(0x40, 0xa0)\n    /* \"bankContract.sol\":197:246  constructor() {... */\n  callvalue\n  dup1\n  iszero\n  tag_1\n  jumpi\n  0x00\n  dup1\n  revert\ntag_1:\n  pop\n    /* \"bankContract.sol\":229:239  msg.sender */\n  caller\n    /* \"bankContract.sol\":221:239  admin = msg.sender */\n  0xffffffffffffffffffffffffffffffffffffffff\n  and\n  0x80\n  dup2\n  0xffffffffffffffffffffffffffffffffffffffff\n  and\n  dup2\n  mstore\n  pop\n  pop\n    /* \"bankContract.sol\":58:1946  contract Bank {... */\n  mload(0x80)\n  codecopy(0x00, dataOffset(sub_0), dataSize(sub_0))\n  0x00\n  assignImmutable(\"0x2a80e1ef1d7842f27f2e6be0972bb708b9a135c38860dbe73c27c3486c34f4de\")\n  return(0x00, dataSize(sub_0))\nstop\n\nsub_0: assembly {\n        /* \"bankContract.sol\":58:1946  contract Bank {... */\n      mstore(0x40, 0x80)\n      jumpi(tag_1, lt(calldatasize, 0x04))\n      shr(0xe0, calldataload(0x00))\n      dup1\n      0x27e235e3\n      eq\n      tag_3\n      jumpi\n      dup1\n      0x3ccfd60b\n      eq\n      tag_4\n      jumpi\n      dup1\n      0x689dbf4e\n      eq\n      tag_5\n      jumpi\n      dup1\n      0xf39dfb17\n      eq\n      tag_6\n      jumpi\n      dup1\n      0xf851a440\n      eq\n      tag_7\n      jumpi\n      jump(tag_2)\n    tag_1:\n      jumpi(tag_2, calldatasize)\n        /* \"bankContract.sol\":339:348  msg.value */\n      callvalue\n        /* \"bankContract.sol\":315:323  balances */\n      0x00\n        /* \"bankContract.sol\":315:335  balances[msg.sender] */\n      dup1\n        /* \"bankContract.sol\":324:334  msg.sender */\n      caller\n        /* \"bankContract.sol\":315:335  balances[msg.sender] */\n      0xffffffffffffffffffffffffffffffffffffffff\n      and\n      0xffffffffffffffffffffffffffffffffffffffff\n      and\n      dup2\n      mstore\n      0x20\n      add\n      swap1\n      dup2\n      mstore\n      0x20\n      add\n      0x00\n      keccak256\n      0x00\n        /* \"bankContract.sol\":315:348  balances[msg.sender] += msg.value */\n      dup3\n      dup3\n      sload\n      tag_10\n      swap2\n      swap1\n      tag_11\n      jump\t// in\n    tag_10:\n      swap3\n      pop\n      pop\n      dup2\n      swap1\n      sstore\n      pop\n        /* \"bankContract.sol\":358:385  _updateTopUsers(msg.sender) */\n      tag_12\n        /* \"bankContract.sol\":374:384  msg.sender */\n      caller\n        /* \"bankContract.sol\":358:373  _updateTopUsers */\n      tag_13\n        /* \"bankContract.sol\":358:385  _updateTopUsers(msg.sender) */\n      jump\t// in\n    tag_12:\n        /* \"bankContract.sol\":58:1946  contract Bank {... */\n      stop\n    tag_2:\n      0x00\n      dup1\n      revert\n        /* \"bankContract.sol\":115:158  mapping(address => uint256) public balances */\n    tag_3:\n      callvalue\n      dup1\n      iszero\n      tag_14\n      jumpi\n      0x00\n      dup1\n      revert\n    tag_14:\n      pop\n      tag_15\n      0x04\n      dup1\n      calldatasize\n      sub\n      dup2\n      add\n      swap1\n      tag_16\n      swap2\n      swap1\n      tag_17\n      jump\t// in\n    tag_16:\n      tag_18\n      jump\t// in\n    tag_15:\n      mload(0x40)\n      tag_19\n      swap2\n      swap1\n      tag_20\n      jump\t// in\n    tag_19:\n      mload(0x40)\n      dup1\n      swap2\n      sub\n      swap1\n      return\n        /* \"bankContract.sol\":439:587  function withdraw() external {... */\n    tag_4:\n      callvalue\n      dup1\n      iszero\n      tag_21\n      jumpi\n      0x00\n      dup1\n      revert\n    tag_21:\n      pop\n      tag_22\n      tag_23\n      jump\t// in\n    tag_22:\n      stop\n        /* \"bankContract.sol\":164:190  address[3] public topUsers */\n    tag_5:\n      callvalue\n      dup1\n      iszero\n      tag_24\n      jumpi\n      0x00\n      dup1\n      revert\n    tag_24:\n      pop\n      tag_25\n      0x04\n      dup1\n      calldatasize\n      sub\n      dup2\n      add\n      swap1\n      tag_26\n      swap2\n      swap1\n      tag_27\n      jump\t// in\n    tag_26:\n      tag_28\n      jump\t// in\n    tag_25:\n      mload(0x40)\n      tag_29\n      swap2\n      swap1\n      tag_30\n      jump\t// in\n    tag_29:\n      mload(0x40)\n      dup1\n      swap2\n      sub\n      swap1\n      return\n        /* \"bankContract.sol\":635:858  function getTopUsers() external view returns (address[3] memory, uint256[3] memory) {... */\n    tag_6:\n      callvalue\n      dup1\n      iszero\n      tag_31\n      jumpi\n      0x00\n      dup1\n      revert\n    tag_31:\n      pop\n      tag_32\n      tag_33\n      jump\t// in\n    tag_32:\n      mload(0x40)\n      tag_34\n      swap3\n      swap2\n      swap1\n      tag_35\n      jump\t// in\n    tag_34:\n      mload(0x40)\n      dup1\n      swap2\n      sub\n      swap1\n      return\n        /* \"bankContract.sol\":78:108  address public immutable admin */\n    tag_7:\n      callvalue\n      dup1\n      iszero\n      tag_36\n      jumpi\n      0x00\n      dup1\n      revert\n    tag_36:\n      pop\n      tag_37\n      tag_38\n      jump\t// in\n    tag_37:\n      mload(0x40)\n      tag_39\n      swap2\n      swap1\n      tag_30\n      jump\t// in\n    tag_39:\n      mload(0x40)\n      dup1\n      swap2\n      sub\n      swap1\n      return\n        /* \"bankContract.sol\":906:1574  function _updateTopUsers(address user) private {... */\n    tag_13:\n        /* \"bankContract.sol\":963:982  uint256 userBalance */\n      0x00\n        /* \"bankContract.sol\":985:993  balances */\n      dup1\n        /* \"bankContract.sol\":985:999  balances[user] */\n      0x00\n        /* \"bankContract.sol\":994:998  user */\n      dup4\n        /* \"bankContract.sol\":985:999  balances[user] */\n      0xffffffffffffffffffffffffffffffffffffffff\n      and\n      0xffffffffffffffffffffffffffffffffffffffff\n      and\n      dup2\n      mstore\n      0x20\n      add\n      swap1\n      dup2\n      mstore\n      0x20\n      add\n      0x00\n      keccak256\n      sload\n        /* \"bankContract.sol\":963:999  uint256 userBalance = balances[user] */\n      swap1\n      pop\n        /* \"bankContract.sol\":1052:1058  uint i */\n      0x00\n        /* \"bankContract.sol\":1047:1197  for (uint i = 0; i < 3; i++) {... */\n    tag_41:\n        /* \"bankContract.sol\":1068:1069  3 */\n      0x03\n        /* \"bankContract.sol\":1064:1065  i */\n      dup2\n        /* \"bankContract.sol\":1064:1069  i < 3 */\n      lt\n        /* \"bankContract.sol\":1047:1197  for (uint i = 0; i < 3; i++) {... */\n      iszero\n      tag_42\n      jumpi\n        /* \"bankContract.sol\":1109:1113  user */\n      dup3\n        /* \"bankContract.sol\":1094:1113  topUsers[i] == user */\n      0xffffffffffffffffffffffffffffffffffffffff\n      and\n        /* \"bankContract.sol\":1094:1102  topUsers */\n      0x01\n        /* \"bankContract.sol\":1103:1104  i */\n      dup3\n        /* \"bankContract.sol\":1094:1105  topUsers[i] */\n      0x03\n      dup2\n      lt\n      tag_44\n      jumpi\n      tag_45\n      tag_46\n      jump\t// in\n    tag_45:\n    tag_44:\n      add\n      0x00\n      swap1\n      sload\n      swap1\n      0x0100\n      exp\n      swap1\n      div\n      0xffffffffffffffffffffffffffffffffffffffff\n      and\n        /* \"bankContract.sol\":1094:1113  topUsers[i] == user */\n      0xffffffffffffffffffffffffffffffffffffffff\n      and\n      sub\n        /* \"bankContract.sol\":1090:1187  if (topUsers[i] == user) {... */\n      tag_48\n      jumpi\n        /* \"bankContract.sol\":1133:1148  _sortTopUsers() */\n      tag_49\n        /* \"bankContract.sol\":1133:1146  _sortTopUsers */\n      tag_50\n        /* \"bankContract.sol\":1133:1148  _sortTopUsers() */\n      jump\t// in\n    tag_49:\n        /* \"bankContract.sol\":1166:1173  return; */\n      pop\n      pop\n      jump(tag_40)\n        /* \"bankContract.sol\":1090:1187  if (topUsers[i] == user) {... */\n    tag_48:\n        /* \"bankContract.sol\":1071:1074  i++ */\n      dup1\n      dup1\n      0x01\n      add\n      swap2\n      pop\n      pop\n        /* \"bankContract.sol\":1047:1197  for (uint i = 0; i < 3; i++) {... */\n      jump(tag_41)\n    tag_42:\n      pop\n        /* \"bankContract.sol\":1252:1265  uint minIndex */\n      0x00\n        /* \"bankContract.sol\":1280:1286  uint i */\n      dup1\n        /* \"bankContract.sol\":1289:1290  1 */\n      0x01\n        /* \"bankContract.sol\":1280:1290  uint i = 1 */\n      swap1\n      pop\n        /* \"bankContract.sol\":1275:1431  for (uint i = 1; i < 3; i++) {... */\n    tag_51:\n        /* \"bankContract.sol\":1296:1297  3 */\n      0x03\n        /* \"bankContract.sol\":1292:1293  i */\n      dup2\n        /* \"bankContract.sol\":1292:1297  i < 3 */\n      lt\n        /* \"bankContract.sol\":1275:1431  for (uint i = 1; i < 3; i++) {... */\n      iszero\n      tag_52\n      jumpi\n        /* \"bankContract.sol\":1346:1354  balances */\n      0x00\n        /* \"bankContract.sol\":1346:1374  balances[topUsers[minIndex]] */\n      dup1\n        /* \"bankContract.sol\":1355:1363  topUsers */\n      0x01\n        /* \"bankContract.sol\":1364:1372  minIndex */\n      dup5\n        /* \"bankContract.sol\":1355:1373  topUsers[minIndex] */\n      0x03\n      dup2\n      lt\n      tag_54\n      jumpi\n      tag_55\n      tag_46\n      jump\t// in\n    tag_55:\n    tag_54:\n      add\n      0x00\n      swap1\n      sload\n      swap1\n      0x0100\n      exp\n      swap1\n      div\n      0xffffffffffffffffffffffffffffffffffffffff\n      and\n        /* \"bankContract.sol\":1346:1374  balances[topUsers[minIndex]] */\n      0xffffffffffffffffffffffffffffffffffffffff\n      and\n      0xffffffffffffffffffffffffffffffffffffffff\n      and\n      dup2\n      mstore\n      0x20\n      add\n      swap1\n      dup2\n      mstore\n      0x20\n      add\n      0x00\n      keccak256\n      sload\n        /* \"bankContract.sol\":1322:1330  balances */\n      0x00\n        /* \"bankContract.sol\":1322:1343  balances[topUsers[i]] */\n      dup1\n        /* \"bankContract.sol\":1331:1339  topUsers */\n      0x01\n        /* \"bankContract.sol\":1340:1341  i */\n      dup5\n        /* \"bankContract.sol\":1331:1342  topUsers[i] */\n      0x03\n      dup2\n      lt\n      tag_57\n      jumpi\n      tag_58\n      tag_46\n      jump\t// in\n    tag_58:\n    tag_57:\n      add\n      0x00\n      swap1\n      sload\n      swap1\n      0x0100\n      exp\n      swap1\n      div\n      0xffffffffffffffffffffffffffffffffffffffff\n      and\n        /* \"bankContract.sol\":1322:1343  balances[topUsers[i]] */\n      0xffffffffffffffffffffffffffffffffffffffff\n      and\n      0xffffffffffffffffffffffffffffffffffffffff\n      and\n      dup2\n      mstore\n      0x20\n      add\n      swap1\n      dup2\n      mstore\n      0x20\n      add\n      0x00\n      keccak256\n      sload\n        /* \"bankContract.sol\":1322:1374  balances[topUsers[i]] < balances[topUsers[minIndex]] */\n      lt\n        /* \"bankContract.sol\":1318:1421  if (balances[topUsers[i]] < balances[topUsers[minIndex]]) {... */\n      iszero\n      tag_60\n      jumpi\n        /* \"bankContract.sol\":1405:1406  i */\n      dup1\n        /* \"bankContract.sol\":1394:1406  minIndex = i */\n      swap2\n      pop\n        /* \"bankContract.sol\":1318:1421  if (balances[topUsers[i]] < balances[topUsers[minIndex]]) {... */\n    tag_60:\n        /* \"bankContract.sol\":1299:1302  i++ */\n      dup1\n      dup1\n      0x01\n      add\n      swap2\n      pop\n      pop\n        /* \"bankContract.sol\":1275:1431  for (uint i = 1; i < 3; i++) {... */\n      jump(tag_51)\n    tag_52:\n      pop\n        /* \"bankContract.sol\":1459:1467  balances */\n      0x00\n        /* \"bankContract.sol\":1459:1487  balances[topUsers[minIndex]] */\n      dup1\n        /* \"bankContract.sol\":1468:1476  topUsers */\n      0x01\n        /* \"bankContract.sol\":1477:1485  minIndex */\n      dup4\n        /* \"bankContract.sol\":1468:1486  topUsers[minIndex] */\n      0x03\n      dup2\n      lt\n      tag_61\n      jumpi\n      tag_62\n      tag_46\n      jump\t// in\n    tag_62:\n    tag_61:\n      add\n      0x00\n      swap1\n      sload\n      swap1\n      0x0100\n      exp\n      swap1\n      div\n      0xffffffffffffffffffffffffffffffffffffffff\n      and\n        /* \"bankContract.sol\":1459:1487  balances[topUsers[minIndex]] */\n      0xffffffffffffffffffffffffffffffffffffffff\n      and\n      0xffffffffffffffffffffffffffffffffffffffff\n      and\n      dup2\n      mstore\n      0x20\n      add\n      swap1\n      dup2\n      mstore\n      0x20\n      add\n      0x00\n      keccak256\n      sload\n        /* \"bankContract.sol\":1445:1456  userBalance */\n      dup3\n        /* \"bankContract.sol\":1445:1487  userBalance > balances[topUsers[minIndex]] */\n      gt\n        /* \"bankContract.sol\":1441:1568  if (userBalance > balances[topUsers[minIndex]]) {... */\n      iszero\n      tag_64\n      jumpi\n        /* \"bankContract.sol\":1524:1528  user */\n      dup3\n        /* \"bankContract.sol\":1503:1511  topUsers */\n      0x01\n        /* \"bankContract.sol\":1512:1520  minIndex */\n      dup3\n        /* \"bankContract.sol\":1503:1521  topUsers[minIndex] */\n      0x03\n      dup2\n      lt\n      tag_65\n      jumpi\n      tag_66\n      tag_46\n      jump\t// in\n    tag_66:\n    tag_65:\n      add\n      0x00\n        /* \"bankContract.sol\":1503:1528  topUsers[minIndex] = user */\n      0x0100\n      exp\n      dup2\n      sload\n      dup2\n      0xffffffffffffffffffffffffffffffffffffffff\n      mul\n      not\n      and\n      swap1\n      dup4\n      0xffffffffffffffffffffffffffffffffffffffff\n      and\n      mul\n      or\n      swap1\n      sstore\n      pop\n        /* \"bankContract.sol\":1542:1557  _sortTopUsers() */\n      tag_68\n        /* \"bankContract.sol\":1542:1555  _sortTopUsers */\n      tag_50\n        /* \"bankContract.sol\":1542:1557  _sortTopUsers() */\n      jump\t// in\n    tag_68:\n        /* \"bankContract.sol\":1441:1568  if (userBalance > balances[topUsers[minIndex]]) {... */\n    tag_64:\n        /* \"bankContract.sol\":953:1574  {... */\n      pop\n      pop\n        /* \"bankContract.sol\":906:1574  function _updateTopUsers(address user) private {... */\n    tag_40:\n      pop\n      jump\t// out\n        /* \"bankContract.sol\":115:158  mapping(address => uint256) public balances */\n    tag_18:\n      mstore(0x20, 0x00)\n      dup1\n      0x00\n      mstore\n      keccak256(0x00, 0x40)\n      0x00\n      swap2\n      pop\n      swap1\n      pop\n      sload\n      dup2\n      jump\t// out\n        /* \"bankContract.sol\":439:587  function withdraw() external {... */\n    tag_23:\n        /* \"bankContract.sol\":500:505  admin */\n      immutable(\"0x2a80e1ef1d7842f27f2e6be0972bb708b9a135c38860dbe73c27c3486c34f4de\")\n        /* \"bankContract.sol\":486:505  msg.sender == admin */\n      0xffffffffffffffffffffffffffffffffffffffff\n      and\n        /* \"bankContract.sol\":486:496  msg.sender */\n      caller\n        /* \"bankContract.sol\":486:505  msg.sender == admin */\n      0xffffffffffffffffffffffffffffffffffffffff\n      and\n      eq\n        /* \"bankContract.sol\":478:524  require(msg.sender == admin, \"Not authorized\") */\n      tag_70\n      jumpi\n      mload(0x40)\n      0x08c379a000000000000000000000000000000000000000000000000000000000\n      dup2\n      mstore\n      0x04\n      add\n      tag_71\n      swap1\n      tag_72\n      jump\t// in\n    tag_71:\n      mload(0x40)\n      dup1\n      swap2\n      sub\n      swap1\n      revert\n    tag_70:\n        /* \"bankContract.sol\":542:547  admin */\n      immutable(\"0x2a80e1ef1d7842f27f2e6be0972bb708b9a135c38860dbe73c27c3486c34f4de\")\n        /* \"bankContract.sol\":534:557  payable(admin).transfer */\n      0xffffffffffffffffffffffffffffffffffffffff\n      and\n        /* \"bankContract.sol\":534:580  payable(admin).transfer(address(this).balance) */\n      0x08fc\n        /* \"bankContract.sol\":558:579  address(this).balance */\n      selfbalance\n        /* \"bankContract.sol\":534:580  payable(admin).transfer(address(this).balance) */\n      swap1\n      dup2\n      iszero\n      mul\n      swap1\n      mload(0x40)\n      0x00\n      mload(0x40)\n      dup1\n      dup4\n      sub\n      dup2\n      dup6\n      dup9\n      dup9\n      call\n      swap4\n      pop\n      pop\n      pop\n      pop\n      iszero\n      dup1\n      iszero\n      tag_74\n      jumpi\n      returndatasize\n      0x00\n      dup1\n      returndatacopy\n      revert(0x00, returndatasize)\n    tag_74:\n      pop\n        /* \"bankContract.sol\":439:587  function withdraw() external {... */\n      jump\t// out\n        /* \"bankContract.sol\":164:190  address[3] public topUsers */\n    tag_28:\n      0x01\n      dup2\n      0x03\n      dup2\n      lt\n      tag_75\n      jumpi\n      0x00\n      dup1\n      revert\n    tag_75:\n      add\n      0x00\n      swap2\n      pop\n      sload\n      swap1\n      0x0100\n      exp\n      swap1\n      div\n      0xffffffffffffffffffffffffffffffffffffffff\n      and\n      dup2\n      jump\t// out\n        /* \"bankContract.sol\":635:858  function getTopUsers() external view returns (address[3] memory, uint256[3] memory) {... */\n    tag_33:\n        /* \"bankContract.sol\":681:698  address[3] memory */\n      tag_77\n      tag_78\n      jump\t// in\n    tag_77:\n        /* \"bankContract.sol\":700:717  uint256[3] memory */\n      tag_79\n      tag_80\n      jump\t// in\n    tag_79:\n        /* \"bankContract.sol\":750:758  topUsers */\n      0x01\n        /* \"bankContract.sol\":729:851  return (... */\n      mload(0x40)\n      dup1\n      0x60\n      add\n      0x40\n      mstore\n      dup1\n        /* \"bankContract.sol\":773:781  balances */\n      0x00\n        /* \"bankContract.sol\":773:794  balances[topUsers[0]] */\n      dup1\n        /* \"bankContract.sol\":782:790  topUsers */\n      0x01\n        /* \"bankContract.sol\":791:792  0 */\n      0x00\n        /* \"bankContract.sol\":782:793  topUsers[0] */\n      0x03\n      dup2\n      lt\n      tag_82\n      jumpi\n      tag_83\n      tag_46\n      jump\t// in\n    tag_83:\n    tag_82:\n      add\n      0x00\n      swap1\n      sload\n      swap1\n      0x0100\n      exp\n      swap1\n      div\n      0xffffffffffffffffffffffffffffffffffffffff\n      and\n        /* \"bankContract.sol\":773:794  balances[topUsers[0]] */\n      0xffffffffffffffffffffffffffffffffffffffff\n      and\n      0xffffffffffffffffffffffffffffffffffffffff\n      and\n      dup2\n      mstore\n      0x20\n      add\n      swap1\n      dup2\n      mstore\n      0x20\n      add\n      0x00\n      keccak256\n      sload\n        /* \"bankContract.sol\":729:851  return (... */\n      dup2\n      mstore\n      0x20\n      add\n        /* \"bankContract.sol\":796:804  balances */\n      0x00\n        /* \"bankContract.sol\":796:817  balances[topUsers[1]] */\n      dup1\n        /* \"bankContract.sol\":805:813  topUsers */\n      0x01\n        /* \"bankContract.sol\":814:815  1 */\n      dup1\n        /* \"bankContract.sol\":805:816  topUsers[1] */\n      0x03\n      dup2\n      lt\n      tag_85\n      jumpi\n      tag_86\n      tag_46\n      jump\t// in\n    tag_86:\n    tag_85:\n      add\n      0x00\n      swap1\n      sload\n      swap1\n      0x0100\n      exp\n      swap1\n      div\n      0xffffffffffffffffffffffffffffffffffffffff\n      and\n        /* \"bankContract.sol\":796:817  balances[topUsers[1]] */\n      0xffffffffffffffffffffffffffffffffffffffff\n      and\n      0xffffffffffffffffffffffffffffffffffffffff\n      and\n      dup2\n      mstore\n      0x20\n      add\n      swap1\n      dup2\n      mstore\n      0x20\n      add\n      0x00\n      keccak256\n      sload\n        /* \"bankContract.sol\":729:851  return (... */\n      dup2\n      mstore\n      0x20\n      add\n        /* \"bankContract.sol\":819:827  balances */\n      0x00\n        /* \"bankContract.sol\":819:840  balances[topUsers[2]] */\n      dup1\n        /* \"bankContract.sol\":828:836  topUsers */\n      0x01\n        /* \"bankContract.sol\":837:838  2 */\n      0x02\n        /* \"bankContract.sol\":828:839  topUsers[2] */\n      0x03\n      dup2\n      lt\n      tag_88\n      jumpi\n      tag_89\n      tag_46\n      jump\t// in\n    tag_89:\n    tag_88:\n      add\n      0x00\n      swap1\n      sload\n      swap1\n      0x0100\n      exp\n      swap1\n      div\n      0xffffffffffffffffffffffffffffffffffffffff\n      and\n        /* \"bankContract.sol\":819:840  balances[topUsers[2]] */\n      0xffffffffffffffffffffffffffffffffffffffff\n      and\n      0xffffffffffffffffffffffffffffffffffffffff\n      and\n      dup2\n      mstore\n      0x20\n      add\n      swap1\n      dup2\n      mstore\n      0x20\n      add\n      0x00\n      keccak256\n      sload\n        /* \"bankContract.sol\":729:851  return (... */\n      dup2\n      mstore\n      pop\n      dup2\n      0x03\n      dup1\n      0x20\n      mul\n      mload(0x40)\n      swap1\n      dup2\n      add\n      0x40\n      mstore\n      dup1\n      swap3\n      swap2\n      swap1\n      dup3\n      0x03\n      dup1\n      iszero\n      tag_91\n      jumpi\n      0x20\n      mul\n      dup3\n      add\n      swap2\n    tag_92:\n      dup2\n      0x00\n      swap1\n      sload\n      swap1\n      0x0100\n      exp\n      swap1\n      div\n      0xffffffffffffffffffffffffffffffffffffffff\n      and\n      0xffffffffffffffffffffffffffffffffffffffff\n      and\n      dup2\n      mstore\n      0x20\n      add\n      swap1\n      0x01\n      add\n      swap1\n      dup1\n      dup4\n      gt\n      tag_92\n      jumpi\n    tag_91:\n      pop\n      pop\n      pop\n      pop\n      pop\n      swap2\n      pop\n      swap2\n      pop\n      swap2\n      pop\n        /* \"bankContract.sol\":635:858  function getTopUsers() external view returns (address[3] memory, uint256[3] memory) {... */\n      swap1\n      swap2\n      jump\t// out\n        /* \"bankContract.sol\":78:108  address public immutable admin */\n    tag_38:\n      immutable(\"0x2a80e1ef1d7842f27f2e6be0972bb708b9a135c38860dbe73c27c3486c34f4de\")\n      dup2\n      jump\t// out\n        /* \"bankContract.sol\":1630:1944  function _sortTopUsers() private {... */\n    tag_50:\n        /* \"bankContract.sol\":1678:1684  uint i */\n      0x00\n        /* \"bankContract.sol\":1673:1938  for (uint i = 0; i < 2; i++) {... */\n    tag_94:\n        /* \"bankContract.sol\":1694:1695  2 */\n      0x02\n        /* \"bankContract.sol\":1690:1691  i */\n      dup2\n        /* \"bankContract.sol\":1690:1695  i < 2 */\n      lt\n        /* \"bankContract.sol\":1673:1938  for (uint i = 0; i < 2; i++) {... */\n      iszero\n      tag_95\n      jumpi\n        /* \"bankContract.sol\":1721:1727  uint j */\n      0x00\n        /* \"bankContract.sol\":1734:1735  1 */\n      0x01\n        /* \"bankContract.sol\":1730:1731  i */\n      dup3\n        /* \"bankContract.sol\":1730:1735  i + 1 */\n      tag_100\n      swap2\n      swap1\n      tag_11\n      jump\t// in\n    tag_100:\n        /* \"bankContract.sol\":1721:1735  uint j = i + 1 */\n      swap1\n      pop\n        /* \"bankContract.sol\":1716:1928  for (uint j = i + 1; j < 3; j++) {... */\n    tag_97:\n        /* \"bankContract.sol\":1741:1742  3 */\n      0x03\n        /* \"bankContract.sol\":1737:1738  j */\n      dup2\n        /* \"bankContract.sol\":1737:1742  j < 3 */\n      lt\n        /* \"bankContract.sol\":1716:1928  for (uint j = i + 1; j < 3; j++) {... */\n      iszero\n      tag_98\n      jumpi\n        /* \"bankContract.sol\":1795:1803  balances */\n      0x00\n        /* \"bankContract.sol\":1795:1816  balances[topUsers[i]] */\n      dup1\n        /* \"bankContract.sol\":1804:1812  topUsers */\n      0x01\n        /* \"bankContract.sol\":1813:1814  i */\n      dup5\n        /* \"bankContract.sol\":1804:1815  topUsers[i] */\n      0x03\n      dup2\n      lt\n      tag_101\n      jumpi\n      tag_102\n      tag_46\n      jump\t// in\n    tag_102:\n    tag_101:\n      add\n      0x00\n      swap1\n      sload\n      swap1\n      0x0100\n      exp\n      swap1\n      div\n      0xffffffffffffffffffffffffffffffffffffffff\n      and\n        /* \"bankContract.sol\":1795:1816  balances[topUsers[i]] */\n      0xffffffffffffffffffffffffffffffffffffffff\n      and\n      0xffffffffffffffffffffffffffffffffffffffff\n      and\n      dup2\n      mstore\n      0x20\n      add\n      swap1\n      dup2\n      mstore\n      0x20\n      add\n      0x00\n      keccak256\n      sload\n        /* \"bankContract.sol\":1771:1779  balances */\n      0x00\n        /* \"bankContract.sol\":1771:1792  balances[topUsers[j]] */\n      dup1\n        /* \"bankContract.sol\":1780:1788  topUsers */\n      0x01\n        /* \"bankContract.sol\":1789:1790  j */\n      dup5\n        /* \"bankContract.sol\":1780:1791  topUsers[j] */\n      0x03\n      dup2\n      lt\n      tag_104\n      jumpi\n      tag_105\n      tag_46\n      jump\t// in\n    tag_105:\n    tag_104:\n      add\n      0x00\n      swap1\n      sload\n      swap1\n      0x0100\n      exp\n      swap1\n      div\n      0xffffffffffffffffffffffffffffffffffffffff\n      and\n        /* \"bankContract.sol\":1771:1792  balances[topUsers[j]] */\n      0xffffffffffffffffffffffffffffffffffffffff\n      and\n      0xffffffffffffffffffffffffffffffffffffffff\n      and\n      dup2\n      mstore\n      0x20\n      add\n      swap1\n      dup2\n      mstore\n      0x20\n      add\n      0x00\n      keccak256\n      sload\n        /* \"bankContract.sol\":1771:1816  balances[topUsers[j]] > balances[topUsers[i]] */\n      gt\n        /* \"bankContract.sol\":1767:1914  if (balances[topUsers[j]] > balances[topUsers[i]]) {... */\n      iszero\n      tag_107\n      jumpi\n        /* \"bankContract.sol\":1870:1878  topUsers */\n      0x01\n        /* \"bankContract.sol\":1879:1880  j */\n      dup2\n        /* \"bankContract.sol\":1870:1881  topUsers[j] */\n      0x03\n      dup2\n      lt\n      tag_108\n      jumpi\n      tag_109\n      tag_46\n      jump\t// in\n    tag_109:\n    tag_108:\n      add\n      0x00\n      swap1\n      sload\n      swap1\n      0x0100\n      exp\n      swap1\n      div\n      0xffffffffffffffffffffffffffffffffffffffff\n      and\n        /* \"bankContract.sol\":1883:1891  topUsers */\n      0x01\n        /* \"bankContract.sol\":1892:1893  i */\n      dup4\n        /* \"bankContract.sol\":1883:1894  topUsers[i] */\n      0x03\n      dup2\n      lt\n      tag_111\n      jumpi\n      tag_112\n      tag_46\n      jump\t// in\n    tag_112:\n    tag_111:\n      add\n      0x00\n      swap1\n      sload\n      swap1\n      0x0100\n      exp\n      swap1\n      div\n      0xffffffffffffffffffffffffffffffffffffffff\n      and\n        /* \"bankContract.sol\":1841:1849  topUsers */\n      0x01\n        /* \"bankContract.sol\":1850:1851  i */\n      dup5\n        /* \"bankContract.sol\":1841:1852  topUsers[i] */\n      0x03\n      dup2\n      lt\n      tag_114\n      jumpi\n      tag_115\n      tag_46\n      jump\t// in\n    tag_115:\n    tag_114:\n      add\n      0x00\n        /* \"bankContract.sol\":1854:1862  topUsers */\n      0x01\n        /* \"bankContract.sol\":1863:1864  j */\n      dup6\n        /* \"bankContract.sol\":1854:1865  topUsers[j] */\n      0x03\n      dup2\n      lt\n      tag_117\n      jumpi\n      tag_118\n      tag_46\n      jump\t// in\n    tag_118:\n    tag_117:\n      add\n      0x00\n        /* \"bankContract.sol\":1840:1895  (topUsers[i], topUsers[j]) = (topUsers[j], topUsers[i]) */\n      dup5\n      swap2\n      swap1\n      0x0100\n      exp\n      dup2\n      sload\n      dup2\n      0xffffffffffffffffffffffffffffffffffffffff\n      mul\n      not\n      and\n      swap1\n      dup4\n      0xffffffffffffffffffffffffffffffffffffffff\n      and\n      mul\n      or\n      swap1\n      sstore\n      pop\n      dup4\n      swap2\n      swap1\n      0x0100\n      exp\n      dup2\n      sload\n      dup2\n      0xffffffffffffffffffffffffffffffffffffffff\n      mul\n      not\n      and\n      swap1\n      dup4\n      0xffffffffffffffffffffffffffffffffffffffff\n      and\n      mul\n      or\n      swap1\n      sstore\n      pop\n      pop\n      pop\n        /* \"bankContract.sol\":1767:1914  if (balances[topUsers[j]] > balances[topUsers[i]]) {... */\n    tag_107:\n        /* \"bankContract.sol\":1744:1747  j++ */\n      dup1\n      dup1\n      0x01\n      add\n      swap2\n      pop\n      pop\n        /* \"bankContract.sol\":1716:1928  for (uint j = i + 1; j < 3; j++) {... */\n      jump(tag_97)\n    tag_98:\n      pop\n        /* \"bankContract.sol\":1697:1700  i++ */\n      dup1\n      dup1\n      0x01\n      add\n      swap2\n      pop\n      pop\n        /* \"bankContract.sol\":1673:1938  for (uint i = 0; i < 2; i++) {... */\n      jump(tag_94)\n    tag_95:\n      pop\n        /* \"bankContract.sol\":1630:1944  function _sortTopUsers() private {... */\n      jump\t// out\n    tag_78:\n      mload(0x40)\n      dup1\n      0x60\n      add\n      0x40\n      mstore\n      dup1\n      0x03\n      swap1\n      0x20\n      dup3\n      mul\n      dup1\n      calldatasize\n      dup4\n      calldatacopy\n      dup1\n      dup3\n      add\n      swap2\n      pop\n      pop\n      swap1\n      pop\n      pop\n      swap1\n      jump\t// out\n    tag_80:\n      mload(0x40)\n      dup1\n      0x60\n      add\n      0x40\n      mstore\n      dup1\n      0x03\n      swap1\n      0x20\n      dup3\n      mul\n      dup1\n      calldatasize\n      dup4\n      calldatacopy\n      dup1\n      dup3\n      add\n      swap2\n      pop\n      pop\n      swap1\n      pop\n      pop\n      swap1\n      jump\t// out\n        /* \"#utility.yul\":7:84   */\n    tag_120:\n        /* \"#utility.yul\":44:51   */\n      0x00\n        /* \"#utility.yul\":73:78   */\n      dup2\n        /* \"#utility.yul\":62:78   */\n      swap1\n      pop\n        /* \"#utility.yul\":7:84   */\n      swap2\n      swap1\n      pop\n      jump\t// out\n        /* \"#utility.yul\":90:270   */\n    tag_121:\n        /* \"#utility.yul\":138:215   */\n      0x4e487b7100000000000000000000000000000000000000000000000000000000\n        /* \"#utility.yul\":135:136   */\n      0x00\n        /* \"#utility.yul\":128:216   */\n      mstore\n        /* \"#utility.yul\":235:239   */\n      0x11\n        /* \"#utility.yul\":232:233   */\n      0x04\n        /* \"#utility.yul\":225:240   */\n      mstore\n        /* \"#utility.yul\":259:263   */\n      0x24\n        /* \"#utility.yul\":256:257   */\n      0x00\n        /* \"#utility.yul\":249:264   */\n      revert\n        /* \"#utility.yul\":276:467   */\n    tag_11:\n        /* \"#utility.yul\":316:319   */\n      0x00\n        /* \"#utility.yul\":335:355   */\n      tag_154\n        /* \"#utility.yul\":353:354   */\n      dup3\n        /* \"#utility.yul\":335:355   */\n      tag_120\n      jump\t// in\n    tag_154:\n        /* \"#utility.yul\":330:355   */\n      swap2\n      pop\n        /* \"#utility.yul\":369:389   */\n      tag_155\n        /* \"#utility.yul\":387:388   */\n      dup4\n        /* \"#utility.yul\":369:389   */\n      tag_120\n      jump\t// in\n    tag_155:\n        /* \"#utility.yul\":364:389   */\n      swap3\n      pop\n        /* \"#utility.yul\":412:413   */\n      dup3\n        /* \"#utility.yul\":409:410   */\n      dup3\n        /* \"#utility.yul\":405:414   */\n      add\n        /* \"#utility.yul\":398:414   */\n      swap1\n      pop\n        /* \"#utility.yul\":433:436   */\n      dup1\n        /* \"#utility.yul\":430:431   */\n      dup3\n        /* \"#utility.yul\":427:437   */\n      gt\n        /* \"#utility.yul\":424:460   */\n      iszero\n      tag_156\n      jumpi\n        /* \"#utility.yul\":440:458   */\n      tag_157\n      tag_121\n      jump\t// in\n    tag_157:\n        /* \"#utility.yul\":424:460   */\n    tag_156:\n        /* \"#utility.yul\":276:467   */\n      swap3\n      swap2\n      pop\n      pop\n      jump\t// out\n        /* \"#utility.yul\":554:671   */\n    tag_123:\n        /* \"#utility.yul\":663:664   */\n      0x00\n        /* \"#utility.yul\":660:661   */\n      dup1\n        /* \"#utility.yul\":653:665   */\n      revert\n        /* \"#utility.yul\":800:926   */\n    tag_125:\n        /* \"#utility.yul\":837:844   */\n      0x00\n        /* \"#utility.yul\":877:919   */\n      0xffffffffffffffffffffffffffffffffffffffff\n        /* \"#utility.yul\":870:875   */\n      dup3\n        /* \"#utility.yul\":866:920   */\n      and\n        /* \"#utility.yul\":855:920   */\n      swap1\n      pop\n        /* \"#utility.yul\":800:926   */\n      swap2\n      swap1\n      pop\n      jump\t// out\n        /* \"#utility.yul\":932:1028   */\n    tag_126:\n        /* \"#utility.yul\":969:976   */\n      0x00\n        /* \"#utility.yul\":998:1022   */\n      tag_163\n        /* \"#utility.yul\":1016:1021   */\n      dup3\n        /* \"#utility.yul\":998:1022   */\n      tag_125\n      jump\t// in\n    tag_163:\n        /* \"#utility.yul\":987:1022   */\n      swap1\n      pop\n        /* \"#utility.yul\":932:1028   */\n      swap2\n      swap1\n      pop\n      jump\t// out\n        /* \"#utility.yul\":1034:1156   */\n    tag_127:\n        /* \"#utility.yul\":1107:1131   */\n      tag_165\n        /* \"#utility.yul\":1125:1130   */\n      dup2\n        /* \"#utility.yul\":1107:1131   */\n      tag_126\n      jump\t// in\n    tag_165:\n        /* \"#utility.yul\":1100:1105   */\n      dup2\n        /* \"#utility.yul\":1097:1132   */\n      eq\n        /* \"#utility.yul\":1087:1150   */\n      tag_166\n      jumpi\n        /* \"#utility.yul\":1146:1147   */\n      0x00\n        /* \"#utility.yul\":1143:1144   */\n      dup1\n        /* \"#utility.yul\":1136:1148   */\n      revert\n        /* \"#utility.yul\":1087:1150   */\n    tag_166:\n        /* \"#utility.yul\":1034:1156   */\n      pop\n      jump\t// out\n        /* \"#utility.yul\":1162:1301   */\n    tag_128:\n        /* \"#utility.yul\":1208:1213   */\n      0x00\n        /* \"#utility.yul\":1246:1252   */\n      dup2\n        /* \"#utility.yul\":1233:1253   */\n      calldataload\n        /* \"#utility.yul\":1224:1253   */\n      swap1\n      pop\n        /* \"#utility.yul\":1262:1295   */\n      tag_168\n        /* \"#utility.yul\":1289:1294   */\n      dup2\n        /* \"#utility.yul\":1262:1295   */\n      tag_127\n      jump\t// in\n    tag_168:\n        /* \"#utility.yul\":1162:1301   */\n      swap3\n      swap2\n      pop\n      pop\n      jump\t// out\n        /* \"#utility.yul\":1307:1636   */\n    tag_17:\n        /* \"#utility.yul\":1366:1372   */\n      0x00\n        /* \"#utility.yul\":1415:1417   */\n      0x20\n        /* \"#utility.yul\":1403:1412   */\n      dup3\n        /* \"#utility.yul\":1394:1401   */\n      dup5\n        /* \"#utility.yul\":1390:1413   */\n      sub\n        /* \"#utility.yul\":1386:1418   */\n      slt\n        /* \"#utility.yul\":1383:1502   */\n      iszero\n      tag_170\n      jumpi\n        /* \"#utility.yul\":1421:1500   */\n      tag_171\n      tag_123\n      jump\t// in\n    tag_171:\n        /* \"#utility.yul\":1383:1502   */\n    tag_170:\n        /* \"#utility.yul\":1541:1542   */\n      0x00\n        /* \"#utility.yul\":1566:1619   */\n      tag_172\n        /* \"#utility.yul\":1611:1618   */\n      dup5\n        /* \"#utility.yul\":1602:1608   */\n      dup3\n        /* \"#utility.yul\":1591:1600   */\n      dup6\n        /* \"#utility.yul\":1587:1609   */\n      add\n        /* \"#utility.yul\":1566:1619   */\n      tag_128\n      jump\t// in\n    tag_172:\n        /* \"#utility.yul\":1556:1619   */\n      swap2\n      pop\n        /* \"#utility.yul\":1512:1629   */\n      pop\n        /* \"#utility.yul\":1307:1636   */\n      swap3\n      swap2\n      pop\n      pop\n      jump\t// out\n        /* \"#utility.yul\":1642:1760   */\n    tag_129:\n        /* \"#utility.yul\":1729:1753   */\n      tag_174\n        /* \"#utility.yul\":1747:1752   */\n      dup2\n        /* \"#utility.yul\":1729:1753   */\n      tag_120\n      jump\t// in\n    tag_174:\n        /* \"#utility.yul\":1724:1727   */\n      dup3\n        /* \"#utility.yul\":1717:1754   */\n      mstore\n        /* \"#utility.yul\":1642:1760   */\n      pop\n      pop\n      jump\t// out\n        /* \"#utility.yul\":1766:1988   */\n    tag_20:\n        /* \"#utility.yul\":1859:1863   */\n      0x00\n        /* \"#utility.yul\":1897:1899   */\n      0x20\n        /* \"#utility.yul\":1886:1895   */\n      dup3\n        /* \"#utility.yul\":1882:1900   */\n      add\n        /* \"#utility.yul\":1874:1900   */\n      swap1\n      pop\n        /* \"#utility.yul\":1910:1981   */\n      tag_176\n        /* \"#utility.yul\":1978:1979   */\n      0x00\n        /* \"#utility.yul\":1967:1976   */\n      dup4\n        /* \"#utility.yul\":1963:1980   */\n      add\n        /* \"#utility.yul\":1954:1960   */\n      dup5\n        /* \"#utility.yul\":1910:1981   */\n      tag_129\n      jump\t// in\n    tag_176:\n        /* \"#utility.yul\":1766:1988   */\n      swap3\n      swap2\n      pop\n      pop\n      jump\t// out\n        /* \"#utility.yul\":1994:2116   */\n    tag_130:\n        /* \"#utility.yul\":2067:2091   */\n      tag_178\n        /* \"#utility.yul\":2085:2090   */\n      dup2\n        /* \"#utility.yul\":2067:2091   */\n      tag_120\n      jump\t// in\n    tag_178:\n        /* \"#utility.yul\":2060:2065   */\n      dup2\n        /* \"#utility.yul\":2057:2092   */\n      eq\n        /* \"#utility.yul\":2047:2110   */\n      tag_179\n      jumpi\n        /* \"#utility.yul\":2106:2107   */\n      0x00\n        /* \"#utility.yul\":2103:2104   */\n      dup1\n        /* \"#utility.yul\":2096:2108   */\n      revert\n        /* \"#utility.yul\":2047:2110   */\n    tag_179:\n        /* \"#utility.yul\":1994:2116   */\n      pop\n      jump\t// out\n        /* \"#utility.yul\":2122:2261   */\n    tag_131:\n        /* \"#utility.yul\":2168:2173   */\n      0x00\n        /* \"#utility.yul\":2206:2212   */\n      dup2\n        /* \"#utility.yul\":2193:2213   */\n      calldataload\n        /* \"#utility.yul\":2184:2213   */\n      swap1\n      pop\n        /* \"#utility.yul\":2222:2255   */\n      tag_181\n        /* \"#utility.yul\":2249:2254   */\n      dup2\n        /* \"#utility.yul\":2222:2255   */\n      tag_130\n      jump\t// in\n    tag_181:\n        /* \"#utility.yul\":2122:2261   */\n      swap3\n      swap2\n      pop\n      pop\n      jump\t// out\n        /* \"#utility.yul\":2267:2596   */\n    tag_27:\n        /* \"#utility.yul\":2326:2332   */\n      0x00\n        /* \"#utility.yul\":2375:2377   */\n      0x20\n        /* \"#utility.yul\":2363:2372   */\n      dup3\n        /* \"#utility.yul\":2354:2361   */\n      dup5\n        /* \"#utility.yul\":2350:2373   */\n      sub\n        /* \"#utility.yul\":2346:2378   */\n      slt\n        /* \"#utility.yul\":2343:2462   */\n      iszero\n      tag_183\n      jumpi\n        /* \"#utility.yul\":2381:2460   */\n      tag_184\n      tag_123\n      jump\t// in\n    tag_184:\n        /* \"#utility.yul\":2343:2462   */\n    tag_183:\n        /* \"#utility.yul\":2501:2502   */\n      0x00\n        /* \"#utility.yul\":2526:2579   */\n      tag_185\n        /* \"#utility.yul\":2571:2578   */\n      dup5\n        /* \"#utility.yul\":2562:2568   */\n      dup3\n        /* \"#utility.yul\":2551:2560   */\n      dup6\n        /* \"#utility.yul\":2547:2569   */\n      add\n        /* \"#utility.yul\":2526:2579   */\n      tag_131\n      jump\t// in\n    tag_185:\n        /* \"#utility.yul\":2516:2579   */\n      swap2\n      pop\n        /* \"#utility.yul\":2472:2589   */\n      pop\n        /* \"#utility.yul\":2267:2596   */\n      swap3\n      swap2\n      pop\n      pop\n      jump\t// out\n        /* \"#utility.yul\":2602:2720   */\n    tag_132:\n        /* \"#utility.yul\":2689:2713   */\n      tag_187\n        /* \"#utility.yul\":2707:2712   */\n      dup2\n        /* \"#utility.yul\":2689:2713   */\n      tag_126\n      jump\t// in\n    tag_187:\n        /* \"#utility.yul\":2684:2687   */\n      dup3\n        /* \"#utility.yul\":2677:2714   */\n      mstore\n        /* \"#utility.yul\":2602:2720   */\n      pop\n      pop\n      jump\t// out\n        /* \"#utility.yul\":2726:2948   */\n    tag_30:\n        /* \"#utility.yul\":2819:2823   */\n      0x00\n        /* \"#utility.yul\":2857:2859   */\n      0x20\n        /* \"#utility.yul\":2846:2855   */\n      dup3\n        /* \"#utility.yul\":2842:2860   */\n      add\n        /* \"#utility.yul\":2834:2860   */\n      swap1\n      pop\n        /* \"#utility.yul\":2870:2941   */\n      tag_189\n        /* \"#utility.yul\":2938:2939   */\n      0x00\n        /* \"#utility.yul\":2927:2936   */\n      dup4\n        /* \"#utility.yul\":2923:2940   */\n      add\n        /* \"#utility.yul\":2914:2920   */\n      dup5\n        /* \"#utility.yul\":2870:2941   */\n      tag_132\n      jump\t// in\n    tag_189:\n        /* \"#utility.yul\":2726:2948   */\n      swap3\n      swap2\n      pop\n      pop\n      jump\t// out\n        /* \"#utility.yul\":2954:3058   */\n    tag_133:\n        /* \"#utility.yul\":3019:3025   */\n      0x00\n        /* \"#utility.yul\":3047:3051   */\n      0x03\n        /* \"#utility.yul\":3037:3051   */\n      swap1\n      pop\n        /* \"#utility.yul\":2954:3058   */\n      swap2\n      swap1\n      pop\n      jump\t// out\n        /* \"#utility.yul\":3064:3207   */\n    tag_134:\n        /* \"#utility.yul\":3161:3172   */\n      0x00\n        /* \"#utility.yul\":3198:3201   */\n      dup2\n        /* \"#utility.yul\":3183:3201   */\n      swap1\n      pop\n        /* \"#utility.yul\":3064:3207   */\n      swap3\n      swap2\n      pop\n      pop\n      jump\t// out\n        /* \"#utility.yul\":3213:3311   */\n    tag_135:\n        /* \"#utility.yul\":3278:3282   */\n      0x00\n        /* \"#utility.yul\":3301:3304   */\n      dup2\n        /* \"#utility.yul\":3293:3304   */\n      swap1\n      pop\n        /* \"#utility.yul\":3213:3311   */\n      swap2\n      swap1\n      pop\n      jump\t// out\n        /* \"#utility.yul\":3317:3425   */\n    tag_136:\n        /* \"#utility.yul\":3394:3418   */\n      tag_194\n        /* \"#utility.yul\":3412:3417   */\n      dup2\n        /* \"#utility.yul\":3394:3418   */\n      tag_126\n      jump\t// in\n    tag_194:\n        /* \"#utility.yul\":3389:3392   */\n      dup3\n        /* \"#utility.yul\":3382:3419   */\n      mstore\n        /* \"#utility.yul\":3317:3425   */\n      pop\n      pop\n      jump\t// out\n        /* \"#utility.yul\":3431:3610   */\n    tag_137:\n        /* \"#utility.yul\":3500:3510   */\n      0x00\n        /* \"#utility.yul\":3521:3567   */\n      tag_196\n        /* \"#utility.yul\":3563:3566   */\n      dup4\n        /* \"#utility.yul\":3555:3561   */\n      dup4\n        /* \"#utility.yul\":3521:3567   */\n      tag_136\n      jump\t// in\n    tag_196:\n        /* \"#utility.yul\":3599:3603   */\n      0x20\n        /* \"#utility.yul\":3594:3597   */\n      dup4\n        /* \"#utility.yul\":3590:3604   */\n      add\n        /* \"#utility.yul\":3576:3604   */\n      swap1\n      pop\n        /* \"#utility.yul\":3431:3610   */\n      swap3\n      swap2\n      pop\n      pop\n      jump\t// out\n        /* \"#utility.yul\":3616:3727   */\n    tag_138:\n        /* \"#utility.yul\":3684:3688   */\n      0x00\n        /* \"#utility.yul\":3716:3720   */\n      0x20\n        /* \"#utility.yul\":3711:3714   */\n      dup3\n        /* \"#utility.yul\":3707:3721   */\n      add\n        /* \"#utility.yul\":3699:3721   */\n      swap1\n      pop\n        /* \"#utility.yul\":3616:3727   */\n      swap2\n      swap1\n      pop\n      jump\t// out\n        /* \"#utility.yul\":3765:4459   */\n    tag_139:\n        /* \"#utility.yul\":3901:3953   */\n      tag_199\n        /* \"#utility.yul\":3947:3952   */\n      dup2\n        /* \"#utility.yul\":3901:3953   */\n      tag_133\n      jump\t// in\n    tag_199:\n        /* \"#utility.yul\":3969:4053   */\n      tag_200\n        /* \"#utility.yul\":4046:4052   */\n      dup2\n        /* \"#utility.yul\":4041:4044   */\n      dup5\n        /* \"#utility.yul\":3969:4053   */\n      tag_134\n      jump\t// in\n    tag_200:\n        /* \"#utility.yul\":3962:4053   */\n      swap3\n      pop\n        /* \"#utility.yul\":4077:4131   */\n      tag_201\n        /* \"#utility.yul\":4125:4130   */\n      dup3\n        /* \"#utility.yul\":4077:4131   */\n      tag_135\n      jump\t// in\n    tag_201:\n        /* \"#utility.yul\":4154:4161   */\n      dup1\n        /* \"#utility.yul\":4185:4186   */\n      0x00\n        /* \"#utility.yul\":4170:4452   */\n    tag_202:\n        /* \"#utility.yul\":4195:4201   */\n      dup4\n        /* \"#utility.yul\":4192:4193   */\n      dup2\n        /* \"#utility.yul\":4189:4202   */\n      lt\n        /* \"#utility.yul\":4170:4452   */\n      iszero\n      tag_204\n      jumpi\n        /* \"#utility.yul\":4271:4277   */\n      dup2\n        /* \"#utility.yul\":4265:4278   */\n      mload\n        /* \"#utility.yul\":4298:4361   */\n      tag_205\n        /* \"#utility.yul\":4357:4360   */\n      dup8\n        /* \"#utility.yul\":4342:4355   */\n      dup3\n        /* \"#utility.yul\":4298:4361   */\n      tag_137\n      jump\t// in\n    tag_205:\n        /* \"#utility.yul\":4291:4361   */\n      swap7\n      pop\n        /* \"#utility.yul\":4384:4442   */\n      tag_206\n        /* \"#utility.yul\":4435:4441   */\n      dup4\n        /* \"#utility.yul\":4384:4442   */\n      tag_138\n      jump\t// in\n    tag_206:\n        /* \"#utility.yul\":4374:4442   */\n      swap3\n      pop\n        /* \"#utility.yul\":4230:4452   */\n      pop\n        /* \"#utility.yul\":4217:4218   */\n      0x01\n        /* \"#utility.yul\":4214:4215   */\n      dup2\n        /* \"#utility.yul\":4210:4219   */\n      add\n        /* \"#utility.yul\":4205:4219   */\n      swap1\n      pop\n        /* \"#utility.yul\":4170:4452   */\n      jump(tag_202)\n    tag_204:\n        /* \"#utility.yul\":4174:4188   */\n      pop\n        /* \"#utility.yul\":3877:4459   */\n      pop\n      pop\n      pop\n        /* \"#utility.yul\":3765:4459   */\n      pop\n      pop\n      jump\t// out\n        /* \"#utility.yul\":4465:4569   */\n    tag_140:\n        /* \"#utility.yul\":4530:4536   */\n      0x00\n        /* \"#utility.yul\":4558:4562   */\n      0x03\n        /* \"#utility.yul\":4548:4562   */\n      swap1\n      pop\n        /* \"#utility.yul\":4465:4569   */\n      swap2\n      swap1\n      pop\n      jump\t// out\n        /* \"#utility.yul\":4575:4718   */\n    tag_141:\n        /* \"#utility.yul\":4672:4683   */\n      0x00\n        /* \"#utility.yul\":4709:4712   */\n      dup2\n        /* \"#utility.yul\":4694:4712   */\n      swap1\n      pop\n        /* \"#utility.yul\":4575:4718   */\n      swap3\n      swap2\n      pop\n      pop\n      jump\t// out\n        /* \"#utility.yul\":4724:4822   */\n    tag_142:\n        /* \"#utility.yul\":4789:4793   */\n      0x00\n        /* \"#utility.yul\":4812:4815   */\n      dup2\n        /* \"#utility.yul\":4804:4815   */\n      swap1\n      pop\n        /* \"#utility.yul\":4724:4822   */\n      swap2\n      swap1\n      pop\n      jump\t// out\n        /* \"#utility.yul\":4828:4936   */\n    tag_143:\n        /* \"#utility.yul\":4905:4929   */\n      tag_211\n        /* \"#utility.yul\":4923:4928   */\n      dup2\n        /* \"#utility.yul\":4905:4929   */\n      tag_120\n      jump\t// in\n    tag_211:\n        /* \"#utility.yul\":4900:4903   */\n      dup3\n        /* \"#utility.yul\":4893:4930   */\n      mstore\n        /* \"#utility.yul\":4828:4936   */\n      pop\n      pop\n      jump\t// out\n        /* \"#utility.yul\":4942:5121   */\n    tag_144:\n        /* \"#utility.yul\":5011:5021   */\n      0x00\n        /* \"#utility.yul\":5032:5078   */\n      tag_213\n        /* \"#utility.yul\":5074:5077   */\n      dup4\n        /* \"#utility.yul\":5066:5072   */\n      dup4\n        /* \"#utility.yul\":5032:5078   */\n      tag_143\n      jump\t// in\n    tag_213:\n        /* \"#utility.yul\":5110:5114   */\n      0x20\n        /* \"#utility.yul\":5105:5108   */\n      dup4\n        /* \"#utility.yul\":5101:5115   */\n      add\n        /* \"#utility.yul\":5087:5115   */\n      swap1\n      pop\n        /* \"#utility.yul\":4942:5121   */\n      swap3\n      swap2\n      pop\n      pop\n      jump\t// out\n        /* \"#utility.yul\":5127:5238   */\n    tag_145:\n        /* \"#utility.yul\":5195:5199   */\n      0x00\n        /* \"#utility.yul\":5227:5231   */\n      0x20\n        /* \"#utility.yul\":5222:5225   */\n      dup3\n        /* \"#utility.yul\":5218:5232   */\n      add\n        /* \"#utility.yul\":5210:5232   */\n      swap1\n      pop\n        /* \"#utility.yul\":5127:5238   */\n      swap2\n      swap1\n      pop\n      jump\t// out\n        /* \"#utility.yul\":5276:5970   */\n    tag_146:\n        /* \"#utility.yul\":5412:5464   */\n      tag_216\n        /* \"#utility.yul\":5458:5463   */\n      dup2\n        /* \"#utility.yul\":5412:5464   */\n      tag_140\n      jump\t// in\n    tag_216:\n        /* \"#utility.yul\":5480:5564   */\n      tag_217\n        /* \"#utility.yul\":5557:5563   */\n      dup2\n        /* \"#utility.yul\":5552:5555   */\n      dup5\n        /* \"#utility.yul\":5480:5564   */\n      tag_141\n      jump\t// in\n    tag_217:\n        /* \"#utility.yul\":5473:5564   */\n      swap3\n      pop\n        /* \"#utility.yul\":5588:5642   */\n      tag_218\n        /* \"#utility.yul\":5636:5641   */\n      dup3\n        /* \"#utility.yul\":5588:5642   */\n      tag_142\n      jump\t// in\n    tag_218:\n        /* \"#utility.yul\":5665:5672   */\n      dup1\n        /* \"#utility.yul\":5696:5697   */\n      0x00\n        /* \"#utility.yul\":5681:5963   */\n    tag_219:\n        /* \"#utility.yul\":5706:5712   */\n      dup4\n        /* \"#utility.yul\":5703:5704   */\n      dup2\n        /* \"#utility.yul\":5700:5713   */\n      lt\n        /* \"#utility.yul\":5681:5963   */\n      iszero\n      tag_221\n      jumpi\n        /* \"#utility.yul\":5782:5788   */\n      dup2\n        /* \"#utility.yul\":5776:5789   */\n      mload\n        /* \"#utility.yul\":5809:5872   */\n      tag_222\n        /* \"#utility.yul\":5868:5871   */\n      dup8\n        /* \"#utility.yul\":5853:5866   */\n      dup3\n        /* \"#utility.yul\":5809:5872   */\n      tag_144\n      jump\t// in\n    tag_222:\n        /* \"#utility.yul\":5802:5872   */\n      swap7\n      pop\n        /* \"#utility.yul\":5895:5953   */\n      tag_223\n        /* \"#utility.yul\":5946:5952   */\n      dup4\n        /* \"#utility.yul\":5895:5953   */\n      tag_145\n      jump\t// in\n    tag_223:\n        /* \"#utility.yul\":5885:5953   */\n      swap3\n      pop\n        /* \"#utility.yul\":5741:5963   */\n      pop\n        /* \"#utility.yul\":5728:5729   */\n      0x01\n        /* \"#utility.yul\":5725:5726   */\n      dup2\n        /* \"#utility.yul\":5721:5730   */\n      add\n        /* \"#utility.yul\":5716:5730   */\n      swap1\n      pop\n        /* \"#utility.yul\":5681:5963   */\n      jump(tag_219)\n    tag_221:\n        /* \"#utility.yul\":5685:5699   */\n      pop\n        /* \"#utility.yul\":5388:5970   */\n      pop\n      pop\n      pop\n        /* \"#utility.yul\":5276:5970   */\n      pop\n      pop\n      jump\t// out\n        /* \"#utility.yul\":5976:6493   */\n    tag_35:\n        /* \"#utility.yul\":6189:6193   */\n      0x00\n        /* \"#utility.yul\":6227:6230   */\n      0xc0\n        /* \"#utility.yul\":6216:6225   */\n      dup3\n        /* \"#utility.yul\":6212:6231   */\n      add\n        /* \"#utility.yul\":6204:6231   */\n      swap1\n      pop\n        /* \"#utility.yul\":6241:6358   */\n      tag_225\n        /* \"#utility.yul\":6355:6356   */\n      0x00\n        /* \"#utility.yul\":6344:6353   */\n      dup4\n        /* \"#utility.yul\":6340:6357   */\n      add\n        /* \"#utility.yul\":6331:6337   */\n      dup6\n        /* \"#utility.yul\":6241:6358   */\n      tag_139\n      jump\t// in\n    tag_225:\n        /* \"#utility.yul\":6368:6486   */\n      tag_226\n        /* \"#utility.yul\":6482:6484   */\n      0x60\n        /* \"#utility.yul\":6471:6480   */\n      dup4\n        /* \"#utility.yul\":6467:6485   */\n      add\n        /* \"#utility.yul\":6458:6464   */\n      dup5\n        /* \"#utility.yul\":6368:6486   */\n      tag_146\n      jump\t// in\n    tag_226:\n        /* \"#utility.yul\":5976:6493   */\n      swap4\n      swap3\n      pop\n      pop\n      pop\n      jump\t// out\n        /* \"#utility.yul\":6499:6679   */\n    tag_46:\n        /* \"#utility.yul\":6547:6624   */\n      0x4e487b7100000000000000000000000000000000000000000000000000000000\n        /* \"#utility.yul\":6544:6545   */\n      0x00\n        /* \"#utility.yul\":6537:6625   */\n      mstore\n        /* \"#utility.yul\":6644:6648   */\n      0x32\n        /* \"#utility.yul\":6641:6642   */\n      0x04\n        /* \"#utility.yul\":6634:6649   */\n      mstore\n        /* \"#utility.yul\":6668:6672   */\n      0x24\n        /* \"#utility.yul\":6665:6666   */\n      0x00\n        /* \"#utility.yul\":6658:6673   */\n      revert\n        /* \"#utility.yul\":6685:6854   */\n    tag_147:\n        /* \"#utility.yul\":6769:6780   */\n      0x00\n        /* \"#utility.yul\":6803:6809   */\n      dup3\n        /* \"#utility.yul\":6798:6801   */\n      dup3\n        /* \"#utility.yul\":6791:6810   */\n      mstore\n        /* \"#utility.yul\":6843:6847   */\n      0x20\n        /* \"#utility.yul\":6838:6841   */\n      dup3\n        /* \"#utility.yul\":6834:6848   */\n      add\n        /* \"#utility.yul\":6819:6848   */\n      swap1\n      pop\n        /* \"#utility.yul\":6685:6854   */\n      swap3\n      swap2\n      pop\n      pop\n      jump\t// out\n        /* \"#utility.yul\":6860:7024   */\n    tag_148:\n        /* \"#utility.yul\":7000:7016   */\n      0x4e6f7420617574686f72697a6564000000000000000000000000000000000000\n        /* \"#utility.yul\":6996:6997   */\n      0x00\n        /* \"#utility.yul\":6988:6994   */\n      dup3\n        /* \"#utility.yul\":6984:6998   */\n      add\n        /* \"#utility.yul\":6977:7017   */\n      mstore\n        /* \"#utility.yul\":6860:7024   */\n      pop\n      jump\t// out\n        /* \"#utility.yul\":7030:7396   */\n    tag_149:\n        /* \"#utility.yul\":7172:7175   */\n      0x00\n        /* \"#utility.yul\":7193:7260   */\n      tag_231\n        /* \"#utility.yul\":7257:7259   */\n      0x0e\n        /* \"#utility.yul\":7252:7255   */\n      dup4\n        /* \"#utility.yul\":7193:7260   */\n      tag_147\n      jump\t// in\n    tag_231:\n        /* \"#utility.yul\":7186:7260   */\n      swap2\n      pop\n        /* \"#utility.yul\":7269:7362   */\n      tag_232\n        /* \"#utility.yul\":7358:7361   */\n      dup3\n        /* \"#utility.yul\":7269:7362   */\n      tag_148\n      jump\t// in\n    tag_232:\n        /* \"#utility.yul\":7387:7389   */\n      0x20\n        /* \"#utility.yul\":7382:7385   */\n      dup3\n        /* \"#utility.yul\":7378:7390   */\n      add\n        /* \"#utility.yul\":7371:7390   */\n      swap1\n      pop\n        /* \"#utility.yul\":7030:7396   */\n      swap2\n      swap1\n      pop\n      jump\t// out\n        /* \"#utility.yul\":7402:7821   */\n    tag_72:\n        /* \"#utility.yul\":7568:7572   */\n      0x00\n        /* \"#utility.yul\":7606:7608   */\n      0x20\n        /* \"#utility.yul\":7595:7604   */\n      dup3\n        /* \"#utility.yul\":7591:7609   */\n      add\n        /* \"#utility.yul\":7583:7609   */\n      swap1\n      pop\n        /* \"#utility.yul\":7655:7664   */\n      dup2\n        /* \"#utility.yul\":7649:7653   */\n      dup2\n        /* \"#utility.yul\":7645:7665   */\n      sub\n        /* \"#utility.yul\":7641:7642   */\n      0x00\n        /* \"#utility.yul\":7630:7639   */\n      dup4\n        /* \"#utility.yul\":7626:7643   */\n      add\n        /* \"#utility.yul\":7619:7666   */\n      mstore\n        /* \"#utility.yul\":7683:7814   */\n      tag_234\n        /* \"#utility.yul\":7809:7813   */\n      dup2\n        /* \"#utility.yul\":7683:7814   */\n      tag_149\n      jump\t// in\n    tag_234:\n        /* \"#utility.yul\":7675:7814   */\n      swap1\n      pop\n        /* \"#utility.yul\":7402:7821   */\n      swap2\n      swap1\n      pop\n      jump\t// out\n\n    auxdata: 0xa2646970667358221220bc01327ba18b80bfdfa3bd89f4f481435578cd2d5bb6ffb8d65361f27217781564736f6c634300081a0033\n}\n",
				"bytecode": {
					"linkReferences": {},
					"object": "60a0604052348015600e575f80fd5b503373ffffffffffffffffffffffffffffffffffffffff1660808173ffffffffffffffffffffffffffffffffffffffff1681525050608051610e0c6100695f395f818161045f015281816104ed01526107810152610e0c5ff3fe60806040526004361061004d575f3560e01c806327e235e3146100b35780633ccfd60b146100ef578063689dbf4e14610105578063f39dfb1714610141578063f851a4401461016c576100af565b366100af57345f803373ffffffffffffffffffffffffffffffffffffffff1673ffffffffffffffffffffffffffffffffffffffff1681526020019081526020015f205f82825461009d9190610a5f565b925050819055506100ad33610196565b005b5f80fd5b3480156100be575f80fd5b506100d960048036038101906100d49190610af0565b610449565b6040516100e69190610b2a565b60405180910390f35b3480156100fa575f80fd5b5061010361045d565b005b348015610110575f80fd5b5061012b60048036038101906101269190610b6d565b610551565b6040516101389190610ba7565b60405180910390f35b34801561014c575f80fd5b50610155610585565b604051610163929190610d0a565b60405180910390f35b348015610177575f80fd5b5061018061077f565b60405161018d9190610ba7565b60405180910390f35b5f805f8373ffffffffffffffffffffffffffffffffffffffff1673ffffffffffffffffffffffffffffffffffffffff1681526020019081526020015f205490505f5b6003811015610264578273ffffffffffffffffffffffffffffffffffffffff166001826003811061020c5761020b610d31565b5b015f9054906101000a900473ffffffffffffffffffffffffffffffffffffffff1673ffffffffffffffffffffffffffffffffffffffff1603610257576102506107a3565b5050610446565b80806001019150506101d8565b505f80600190505b600381101561036e575f806001846003811061028b5761028a610d31565b5b015f9054906101000a900473ffffffffffffffffffffffffffffffffffffffff1673ffffffffffffffffffffffffffffffffffffffff1673ffffffffffffffffffffffffffffffffffffffff1681526020019081526020015f20545f80600184600381106102fc576102fb610d31565b5b015f9054906101000a900473ffffffffffffffffffffffffffffffffffffffff1673ffffffffffffffffffffffffffffffffffffffff1673ffffffffffffffffffffffffffffffffffffffff1681526020019081526020015f20541015610361578091505b808060010191505061026c565b505f806001836003811061038557610384610d31565b5b015f9054906101000a900473ffffffffffffffffffffffffffffffffffffffff1673ffffffffffffffffffffffffffffffffffffffff1673ffffffffffffffffffffffffffffffffffffffff1681526020019081526020015f20548211156104435782600182600381106103fc576103fb610d31565b5b015f6101000a81548173ffffffffffffffffffffffffffffffffffffffff021916908373ffffffffffffffffffffffffffffffffffffffff1602179055506104426107a3565b5b50505b50565b5f602052805f5260405f205f915090505481565b7f000000000000000000000000000000000000000000000000000000000000000073ffffffffffffffffffffffffffffffffffffffff163373ffffffffffffffffffffffffffffffffffffffff16146104eb576040517f08c379a00000000000000000000000000000000000000000000000000000000081526004016104e290610db8565b60405180910390fd5b7f000000000000000000000000000000000000000000000000000000000000000073ffffffffffffffffffffffffffffffffffffffff166108fc4790811502906040515f60405180830381858888f1935050505015801561054e573d5f803e3d5ffd5b50565b60018160038110610560575f80fd5b015f915054906101000a900473ffffffffffffffffffffffffffffffffffffffff1681565b61058d6109e5565b610595610a07565b600160405180606001604052805f8060015f600381106105b8576105b7610d31565b5b015f9054906101000a900473ffffffffffffffffffffffffffffffffffffffff1673ffffffffffffffffffffffffffffffffffffffff1673ffffffffffffffffffffffffffffffffffffffff1681526020019081526020015f205481526020015f806001806003811061062e5761062d610d31565b5b015f9054906101000a900473ffffffffffffffffffffffffffffffffffffffff1673ffffffffffffffffffffffffffffffffffffffff1673ffffffffffffffffffffffffffffffffffffffff1681526020019081526020015f205481526020015f8060016002600381106106a5576106a4610d31565b5b015f9054906101000a900473ffffffffffffffffffffffffffffffffffffffff1673ffffffffffffffffffffffffffffffffffffffff1673ffffffffffffffffffffffffffffffffffffffff1681526020019081526020015f205481525081600380602002604051908101604052809291908260038015610770576020028201915b815f9054906101000a900473ffffffffffffffffffffffffffffffffffffffff1673ffffffffffffffffffffffffffffffffffffffff1681526020019060010190808311610727575b50505050509150915091509091565b7f000000000000000000000000000000000000000000000000000000000000000081565b5f5b60028110156109e2575f6001826107bc9190610a5f565b90505b60038110156109d4575f80600184600381106107de576107dd610d31565b5b015f9054906101000a900473ffffffffffffffffffffffffffffffffffffffff1673ffffffffffffffffffffffffffffffffffffffff1673ffffffffffffffffffffffffffffffffffffffff1681526020019081526020015f20545f806001846003811061084f5761084e610d31565b5b015f9054906101000a900473ffffffffffffffffffffffffffffffffffffffff1673ffffffffffffffffffffffffffffffffffffffff1673ffffffffffffffffffffffffffffffffffffffff1681526020019081526020015f205411156109c757600181600381106108c4576108c3610d31565b5b015f9054906101000a900473ffffffffffffffffffffffffffffffffffffffff16600183600381106108f9576108f8610d31565b5b015f9054906101000a900473ffffffffffffffffffffffffffffffffffffffff166001846003811061092e5761092d610d31565b5b015f6001856003811061094457610943610d31565b5b015f8491906101000a81548173ffffffffffffffffffffffffffffffffffffffff021916908373ffffffffffffffffffffffffffffffffffffffff1602179055508391906101000a81548173ffffffffffffffffffffffffffffffffffffffff021916908373ffffffffffffffffffffffffffffffffffffffff16021790555050505b80806001019150506107bf565b5080806001019150506107a5565b50565b6040518060600160405280600390602082028036833780820191505090505090565b6040518060600160405280600390602082028036833780820191505090505090565b5f819050919050565b7f4e487b71000000000000000000000000000000000000000000000000000000005f52601160045260245ffd5b5f610a6982610a29565b9150610a7483610a29565b9250828201905080821115610a8c57610a8b610a32565b5b92915050565b5f80fd5b5f73ffffffffffffffffffffffffffffffffffffffff82169050919050565b5f610abf82610a96565b9050919050565b610acf81610ab5565b8114610ad9575f80fd5b50565b5f81359050610aea81610ac6565b92915050565b5f60208284031215610b0557610b04610a92565b5b5f610b1284828501610adc565b91505092915050565b610b2481610a29565b82525050565b5f602082019050610b3d5f830184610b1b565b92915050565b610b4c81610a29565b8114610b56575f80fd5b50565b5f81359050610b6781610b43565b92915050565b5f60208284031215610b8257610b81610a92565b5b5f610b8f84828501610b59565b91505092915050565b610ba181610ab5565b82525050565b5f602082019050610bba5f830184610b98565b92915050565b5f60039050919050565b5f81905092915050565b5f819050919050565b610be681610ab5565b82525050565b5f610bf78383610bdd565b60208301905092915050565b5f602082019050919050565b610c1881610bc0565b610c228184610bca565b9250610c2d82610bd4565b805f5b83811015610c5d578151610c448782610bec565b9650610c4f83610c03565b925050600181019050610c30565b505050505050565b5f60039050919050565b5f81905092915050565b5f819050919050565b610c8b81610a29565b82525050565b5f610c9c8383610c82565b60208301905092915050565b5f602082019050919050565b610cbd81610c65565b610cc78184610c6f565b9250610cd282610c79565b805f5b83811015610d02578151610ce98782610c91565b9650610cf483610ca8565b925050600181019050610cd5565b505050505050565b5f60c082019050610d1d5f830185610c0f565b610d2a6060830184610cb4565b9392505050565b7f4e487b71000000000000000000000000000000000000000000000000000000005f52603260045260245ffd5b5f82825260208201905092915050565b7f4e6f7420617574686f72697a65640000000000000000000000000000000000005f82015250565b5f610da2600e83610d5e565b9150610dad82610d6e565b602082019050919050565b5f6020820190508181035f830152610dcf81610d96565b905091905056fea2646970667358221220bc01327ba18b80bfdfa3bd89f4f481435578cd2d5bb6ffb8d65361f27217781564736f6c634300081a0033",
					"opcodes": "PUSH1 0xA0 PUSH1 0x40 MSTORE CALLVALUE DUP1 ISZERO PUSH1 0xE JUMPI PUSH0 DUP1 REVERT JUMPDEST POP CALLER PUSH20 0xFFFFFFFFFFFFFFFFFFFFFFFFFFFFFFFFFFFFFFFF AND PUSH1 0x80 DUP2 PUSH20 0xFFFFFFFFFFFFFFFFFFFFFFFFFFFFFFFFFFFFFFFF AND DUP2 MSTORE POP POP PUSH1 0x80 MLOAD PUSH2 0xE0C PUSH2 0x69 PUSH0 CODECOPY PUSH0 DUP2 DUP2 PUSH2 0x45F ADD MSTORE DUP2 DUP2 PUSH2 0x4ED ADD MSTORE PUSH2 0x781 ADD MSTORE PUSH2 0xE0C PUSH0 RETURN INVALID PUSH1 0x80 PUSH1 0x40 MSTORE PUSH1 0x4 CALLDATASIZE LT PUSH2 0x4D JUMPI PUSH0 CALLDATALOAD PUSH1 0xE0 SHR DUP1 PUSH4 0x27E235E3 EQ PUSH2 0xB3 JUMPI DUP1 PUSH4 0x3CCFD60B EQ PUSH2 0xEF JUMPI DUP1 PUSH4 0x689DBF4E EQ PUSH2 0x105 JUMPI DUP1 PUSH4 0xF39DFB17 EQ PUSH2 0x141 JUMPI DUP1 PUSH4 0xF851A440 EQ PUSH2 0x16C JUMPI PUSH2 0xAF JUMP JUMPDEST CALLDATASIZE PUSH2 0xAF JUMPI CALLVALUE PUSH0 DUP1 CALLER PUSH20 0xFFFFFFFFFFFFFFFFFFFFFFFFFFFFFFFFFFFFFFFF AND PUSH20 0xFFFFFFFFFFFFFFFFFFFFFFFFFFFFFFFFFFFFFFFF AND DUP2 MSTORE PUSH1 0x20 ADD SWAP1 DUP2 MSTORE PUSH1 0x20 ADD PUSH0 KECCAK256 PUSH0 DUP3 DUP3 SLOAD PUSH2 0x9D SWAP2 SWAP1 PUSH2 0xA5F JUMP JUMPDEST SWAP3 POP POP DUP2 SWAP1 SSTORE POP PUSH2 0xAD CALLER PUSH2 0x196 JUMP JUMPDEST STOP JUMPDEST PUSH0 DUP1 REVERT JUMPDEST CALLVALUE DUP1 ISZERO PUSH2 0xBE JUMPI PUSH0 DUP1 REVERT JUMPDEST POP PUSH2 0xD9 PUSH1 0x4 DUP1 CALLDATASIZE SUB DUP2 ADD SWAP1 PUSH2 0xD4 SWAP2 SWAP1 PUSH2 0xAF0 JUMP JUMPDEST PUSH2 0x449 JUMP JUMPDEST PUSH1 0x40 MLOAD PUSH2 0xE6 SWAP2 SWAP1 PUSH2 0xB2A JUMP JUMPDEST PUSH1 0x40 MLOAD DUP1 SWAP2 SUB SWAP1 RETURN JUMPDEST CALLVALUE DUP1 ISZERO PUSH2 0xFA JUMPI PUSH0 DUP1 REVERT JUMPDEST POP PUSH2 0x103 PUSH2 0x45D JUMP JUMPDEST STOP JUMPDEST CALLVALUE DUP1 ISZERO PUSH2 0x110 JUMPI PUSH0 DUP1 REVERT JUMPDEST POP PUSH2 0x12B PUSH1 0x4 DUP1 CALLDATASIZE SUB DUP2 ADD SWAP1 PUSH2 0x126 SWAP2 SWAP1 PUSH2 0xB6D JUMP JUMPDEST PUSH2 0x551 JUMP JUMPDEST PUSH1 0x40 MLOAD PUSH2 0x138 SWAP2 SWAP1 PUSH2 0xBA7 JUMP JUMPDEST PUSH1 0x40 MLOAD DUP1 SWAP2 SUB SWAP1 RETURN JUMPDEST CALLVALUE DUP1 ISZERO PUSH2 0x14C JUMPI PUSH0 DUP1 REVERT JUMPDEST POP PUSH2 0x155 PUSH2 0x585 JUMP JUMPDEST PUSH1 0x40 MLOAD PUSH2 0x163 SWAP3 SWAP2 SWAP1 PUSH2 0xD0A JUMP JUMPDEST PUSH1 0x40 MLOAD DUP1 SWAP2 SUB SWAP1 RETURN JUMPDEST CALLVALUE DUP1 ISZERO PUSH2 0x177 JUMPI PUSH0 DUP1 REVERT JUMPDEST POP PUSH2 0x180 PUSH2 0x77F JUMP JUMPDEST PUSH1 0x40 MLOAD PUSH2 0x18D SWAP2 SWAP1 PUSH2 0xBA7 JUMP JUMPDEST PUSH1 0x40 MLOAD DUP1 SWAP2 SUB SWAP1 RETURN JUMPDEST PUSH0 DUP1 PUSH0 DUP4 PUSH20 0xFFFFFFFFFFFFFFFFFFFFFFFFFFFFFFFFFFFFFFFF AND PUSH20 0xFFFFFFFFFFFFFFFFFFFFFFFFFFFFFFFFFFFFFFFF AND DUP2 MSTORE PUSH1 0x20 ADD SWAP1 DUP2 MSTORE PUSH1 0x20 ADD PUSH0 KECCAK256 SLOAD SWAP1 POP PUSH0 JUMPDEST PUSH1 0x3 DUP2 LT ISZERO PUSH2 0x264 JUMPI DUP3 PUSH20 0xFFFFFFFFFFFFFFFFFFFFFFFFFFFFFFFFFFFFFFFF AND PUSH1 0x1 DUP3 PUSH1 0x3 DUP2 LT PUSH2 0x20C JUMPI PUSH2 0x20B PUSH2 0xD31 JUMP JUMPDEST JUMPDEST ADD PUSH0 SWAP1 SLOAD SWAP1 PUSH2 0x100 EXP SWAP1 DIV PUSH20 0xFFFFFFFFFFFFFFFFFFFFFFFFFFFFFFFFFFFFFFFF AND PUSH20 0xFFFFFFFFFFFFFFFFFFFFFFFFFFFFFFFFFFFFFFFF AND SUB PUSH2 0x257 JUMPI PUSH2 0x250 PUSH2 0x7A3 JUMP JUMPDEST POP POP PUSH2 0x446 JUMP JUMPDEST DUP1 DUP1 PUSH1 0x1 ADD SWAP2 POP POP PUSH2 0x1D8 JUMP JUMPDEST POP PUSH0 DUP1 PUSH1 0x1 SWAP1 POP JUMPDEST PUSH1 0x3 DUP2 LT ISZERO PUSH2 0x36E JUMPI PUSH0 DUP1 PUSH1 0x1 DUP5 PUSH1 0x3 DUP2 LT PUSH2 0x28B JUMPI PUSH2 0x28A PUSH2 0xD31 JUMP JUMPDEST JUMPDEST ADD PUSH0 SWAP1 SLOAD SWAP1 PUSH2 0x100 EXP SWAP1 DIV PUSH20 0xFFFFFFFFFFFFFFFFFFFFFFFFFFFFFFFFFFFFFFFF AND PUSH20 0xFFFFFFFFFFFFFFFFFFFFFFFFFFFFFFFFFFFFFFFF AND PUSH20 0xFFFFFFFFFFFFFFFFFFFFFFFFFFFFFFFFFFFFFFFF AND DUP2 MSTORE PUSH1 0x20 ADD SWAP1 DUP2 MSTORE PUSH1 0x20 ADD PUSH0 KECCAK256 SLOAD PUSH0 DUP1 PUSH1 0x1 DUP5 PUSH1 0x3 DUP2 LT PUSH2 0x2FC JUMPI PUSH2 0x2FB PUSH2 0xD31 JUMP JUMPDEST JUMPDEST ADD PUSH0 SWAP1 SLOAD SWAP1 PUSH2 0x100 EXP SWAP1 DIV PUSH20 0xFFFFFFFFFFFFFFFFFFFFFFFFFFFFFFFFFFFFFFFF AND PUSH20 0xFFFFFFFFFFFFFFFFFFFFFFFFFFFFFFFFFFFFFFFF AND PUSH20 0xFFFFFFFFFFFFFFFFFFFFFFFFFFFFFFFFFFFFFFFF AND DUP2 MSTORE PUSH1 0x20 ADD SWAP1 DUP2 MSTORE PUSH1 0x20 ADD PUSH0 KECCAK256 SLOAD LT ISZERO PUSH2 0x361 JUMPI DUP1 SWAP2 POP JUMPDEST DUP1 DUP1 PUSH1 0x1 ADD SWAP2 POP POP PUSH2 0x26C JUMP JUMPDEST POP PUSH0 DUP1 PUSH1 0x1 DUP4 PUSH1 0x3 DUP2 LT PUSH2 0x385 JUMPI PUSH2 0x384 PUSH2 0xD31 JUMP JUMPDEST JUMPDEST ADD PUSH0 SWAP1 SLOAD SWAP1 PUSH2 0x100 EXP SWAP1 DIV PUSH20 0xFFFFFFFFFFFFFFFFFFFFFFFFFFFFFFFFFFFFFFFF AND PUSH20 0xFFFFFFFFFFFFFFFFFFFFFFFFFFFFFFFFFFFFFFFF AND PUSH20 0xFFFFFFFFFFFFFFFFFFFFFFFFFFFFFFFFFFFFFFFF AND DUP2 MSTORE PUSH1 0x20 ADD SWAP1 DUP2 MSTORE PUSH1 0x20 ADD PUSH0 KECCAK256 SLOAD DUP3 GT ISZERO PUSH2 0x443 JUMPI DUP3 PUSH1 0x1 DUP3 PUSH1 0x3 DUP2 LT PUSH2 0x3FC JUMPI PUSH2 0x3FB PUSH2 0xD31 JUMP JUMPDEST JUMPDEST ADD PUSH0 PUSH2 0x100 EXP DUP2 SLOAD DUP2 PUSH20 0xFFFFFFFFFFFFFFFFFFFFFFFFFFFFFFFFFFFFFFFF MUL NOT AND SWAP1 DUP4 PUSH20 0xFFFFFFFFFFFFFFFFFFFFFFFFFFFFFFFFFFFFFFFF AND MUL OR SWAP1 SSTORE POP PUSH2 0x442 PUSH2 0x7A3 JUMP JUMPDEST JUMPDEST POP POP JUMPDEST POP JUMP JUMPDEST PUSH0 PUSH1 0x20 MSTORE DUP1 PUSH0 MSTORE PUSH1 0x40 PUSH0 KECCAK256 PUSH0 SWAP2 POP SWAP1 POP SLOAD DUP2 JUMP JUMPDEST PUSH32 0x0 PUSH20 0xFFFFFFFFFFFFFFFFFFFFFFFFFFFFFFFFFFFFFFFF AND CALLER PUSH20 0xFFFFFFFFFFFFFFFFFFFFFFFFFFFFFFFFFFFFFFFF AND EQ PUSH2 0x4EB JUMPI PUSH1 0x40 MLOAD PUSH32 0x8C379A000000000000000000000000000000000000000000000000000000000 DUP2 MSTORE PUSH1 0x4 ADD PUSH2 0x4E2 SWAP1 PUSH2 0xDB8 JUMP JUMPDEST PUSH1 0x40 MLOAD DUP1 SWAP2 SUB SWAP1 REVERT JUMPDEST PUSH32 0x0 PUSH20 0xFFFFFFFFFFFFFFFFFFFFFFFFFFFFFFFFFFFFFFFF AND PUSH2 0x8FC SELFBALANCE SWAP1 DUP2 ISZERO MUL SWAP1 PUSH1 0x40 MLOAD PUSH0 PUSH1 0x40 MLOAD DUP1 DUP4 SUB DUP2 DUP6 DUP9 DUP9 CALL SWAP4 POP POP POP POP ISZERO DUP1 ISZERO PUSH2 0x54E JUMPI RETURNDATASIZE PUSH0 DUP1 RETURNDATACOPY RETURNDATASIZE PUSH0 REVERT JUMPDEST POP JUMP JUMPDEST PUSH1 0x1 DUP2 PUSH1 0x3 DUP2 LT PUSH2 0x560 JUMPI PUSH0 DUP1 REVERT JUMPDEST ADD PUSH0 SWAP2 POP SLOAD SWAP1 PUSH2 0x100 EXP SWAP1 DIV PUSH20 0xFFFFFFFFFFFFFFFFFFFFFFFFFFFFFFFFFFFFFFFF AND DUP2 JUMP JUMPDEST PUSH2 0x58D PUSH2 0x9E5 JUMP JUMPDEST PUSH2 0x595 PUSH2 0xA07 JUMP JUMPDEST PUSH1 0x1 PUSH1 0x40 MLOAD DUP1 PUSH1 0x60 ADD PUSH1 0x40 MSTORE DUP1 PUSH0 DUP1 PUSH1 0x1 PUSH0 PUSH1 0x3 DUP2 LT PUSH2 0x5B8 JUMPI PUSH2 0x5B7 PUSH2 0xD31 JUMP JUMPDEST JUMPDEST ADD PUSH0 SWAP1 SLOAD SWAP1 PUSH2 0x100 EXP SWAP1 DIV PUSH20 0xFFFFFFFFFFFFFFFFFFFFFFFFFFFFFFFFFFFFFFFF AND PUSH20 0xFFFFFFFFFFFFFFFFFFFFFFFFFFFFFFFFFFFFFFFF AND PUSH20 0xFFFFFFFFFFFFFFFFFFFFFFFFFFFFFFFFFFFFFFFF AND DUP2 MSTORE PUSH1 0x20 ADD SWAP1 DUP2 MSTORE PUSH1 0x20 ADD PUSH0 KECCAK256 SLOAD DUP2 MSTORE PUSH1 0x20 ADD PUSH0 DUP1 PUSH1 0x1 DUP1 PUSH1 0x3 DUP2 LT PUSH2 0x62E JUMPI PUSH2 0x62D PUSH2 0xD31 JUMP JUMPDEST JUMPDEST ADD PUSH0 SWAP1 SLOAD SWAP1 PUSH2 0x100 EXP SWAP1 DIV PUSH20 0xFFFFFFFFFFFFFFFFFFFFFFFFFFFFFFFFFFFFFFFF AND PUSH20 0xFFFFFFFFFFFFFFFFFFFFFFFFFFFFFFFFFFFFFFFF AND PUSH20 0xFFFFFFFFFFFFFFFFFFFFFFFFFFFFFFFFFFFFFFFF AND DUP2 MSTORE PUSH1 0x20 ADD SWAP1 DUP2 MSTORE PUSH1 0x20 ADD PUSH0 KECCAK256 SLOAD DUP2 MSTORE PUSH1 0x20 ADD PUSH0 DUP1 PUSH1 0x1 PUSH1 0x2 PUSH1 0x3 DUP2 LT PUSH2 0x6A5 JUMPI PUSH2 0x6A4 PUSH2 0xD31 JUMP JUMPDEST JUMPDEST ADD PUSH0 SWAP1 SLOAD SWAP1 PUSH2 0x100 EXP SWAP1 DIV PUSH20 0xFFFFFFFFFFFFFFFFFFFFFFFFFFFFFFFFFFFFFFFF AND PUSH20 0xFFFFFFFFFFFFFFFFFFFFFFFFFFFFFFFFFFFFFFFF AND PUSH20 0xFFFFFFFFFFFFFFFFFFFFFFFFFFFFFFFFFFFFFFFF AND DUP2 MSTORE PUSH1 0x20 ADD SWAP1 DUP2 MSTORE PUSH1 0x20 ADD PUSH0 KECCAK256 SLOAD DUP2 MSTORE POP DUP2 PUSH1 0x3 DUP1 PUSH1 0x20 MUL PUSH1 0x40 MLOAD SWAP1 DUP2 ADD PUSH1 0x40 MSTORE DUP1 SWAP3 SWAP2 SWAP1 DUP3 PUSH1 0x3 DUP1 ISZERO PUSH2 0x770 JUMPI PUSH1 0x20 MUL DUP3 ADD SWAP2 JUMPDEST DUP2 PUSH0 SWAP1 SLOAD SWAP1 PUSH2 0x100 EXP SWAP1 DIV PUSH20 0xFFFFFFFFFFFFFFFFFFFFFFFFFFFFFFFFFFFFFFFF AND PUSH20 0xFFFFFFFFFFFFFFFFFFFFFFFFFFFFFFFFFFFFFFFF AND DUP2 MSTORE PUSH1 0x20 ADD SWAP1 PUSH1 0x1 ADD SWAP1 DUP1 DUP4 GT PUSH2 0x727 JUMPI JUMPDEST POP POP POP POP POP SWAP2 POP SWAP2 POP SWAP2 POP SWAP1 SWAP2 JUMP JUMPDEST PUSH32 0x0 DUP2 JUMP JUMPDEST PUSH0 JUMPDEST PUSH1 0x2 DUP2 LT ISZERO PUSH2 0x9E2 JUMPI PUSH0 PUSH1 0x1 DUP3 PUSH2 0x7BC SWAP2 SWAP1 PUSH2 0xA5F JUMP JUMPDEST SWAP1 POP JUMPDEST PUSH1 0x3 DUP2 LT ISZERO PUSH2 0x9D4 JUMPI PUSH0 DUP1 PUSH1 0x1 DUP5 PUSH1 0x3 DUP2 LT PUSH2 0x7DE JUMPI PUSH2 0x7DD PUSH2 0xD31 JUMP JUMPDEST JUMPDEST ADD PUSH0 SWAP1 SLOAD SWAP1 PUSH2 0x100 EXP SWAP1 DIV PUSH20 0xFFFFFFFFFFFFFFFFFFFFFFFFFFFFFFFFFFFFFFFF AND PUSH20 0xFFFFFFFFFFFFFFFFFFFFFFFFFFFFFFFFFFFFFFFF AND PUSH20 0xFFFFFFFFFFFFFFFFFFFFFFFFFFFFFFFFFFFFFFFF AND DUP2 MSTORE PUSH1 0x20 ADD SWAP1 DUP2 MSTORE PUSH1 0x20 ADD PUSH0 KECCAK256 SLOAD PUSH0 DUP1 PUSH1 0x1 DUP5 PUSH1 0x3 DUP2 LT PUSH2 0x84F JUMPI PUSH2 0x84E PUSH2 0xD31 JUMP JUMPDEST JUMPDEST ADD PUSH0 SWAP1 SLOAD SWAP1 PUSH2 0x100 EXP SWAP1 DIV PUSH20 0xFFFFFFFFFFFFFFFFFFFFFFFFFFFFFFFFFFFFFFFF AND PUSH20 0xFFFFFFFFFFFFFFFFFFFFFFFFFFFFFFFFFFFFFFFF AND PUSH20 0xFFFFFFFFFFFFFFFFFFFFFFFFFFFFFFFFFFFFFFFF AND DUP2 MSTORE PUSH1 0x20 ADD SWAP1 DUP2 MSTORE PUSH1 0x20 ADD PUSH0 KECCAK256 SLOAD GT ISZERO PUSH2 0x9C7 JUMPI PUSH1 0x1 DUP2 PUSH1 0x3 DUP2 LT PUSH2 0x8C4 JUMPI PUSH2 0x8C3 PUSH2 0xD31 JUMP JUMPDEST JUMPDEST ADD PUSH0 SWAP1 SLOAD SWAP1 PUSH2 0x100 EXP SWAP1 DIV PUSH20 0xFFFFFFFFFFFFFFFFFFFFFFFFFFFFFFFFFFFFFFFF AND PUSH1 0x1 DUP4 PUSH1 0x3 DUP2 LT PUSH2 0x8F9 JUMPI PUSH2 0x8F8 PUSH2 0xD31 JUMP JUMPDEST JUMPDEST ADD PUSH0 SWAP1 SLOAD SWAP1 PUSH2 0x100 EXP SWAP1 DIV PUSH20 0xFFFFFFFFFFFFFFFFFFFFFFFFFFFFFFFFFFFFFFFF AND PUSH1 0x1 DUP5 PUSH1 0x3 DUP2 LT PUSH2 0x92E JUMPI PUSH2 0x92D PUSH2 0xD31 JUMP JUMPDEST JUMPDEST ADD PUSH0 PUSH1 0x1 DUP6 PUSH1 0x3 DUP2 LT PUSH2 0x944 JUMPI PUSH2 0x943 PUSH2 0xD31 JUMP JUMPDEST JUMPDEST ADD PUSH0 DUP5 SWAP2 SWAP1 PUSH2 0x100 EXP DUP2 SLOAD DUP2 PUSH20 0xFFFFFFFFFFFFFFFFFFFFFFFFFFFFFFFFFFFFFFFF MUL NOT AND SWAP1 DUP4 PUSH20 0xFFFFFFFFFFFFFFFFFFFFFFFFFFFFFFFFFFFFFFFF AND MUL OR SWAP1 SSTORE POP DUP4 SWAP2 SWAP1 PUSH2 0x100 EXP DUP2 SLOAD DUP2 PUSH20 0xFFFFFFFFFFFFFFFFFFFFFFFFFFFFFFFFFFFFFFFF MUL NOT AND SWAP1 DUP4 PUSH20 0xFFFFFFFFFFFFFFFFFFFFFFFFFFFFFFFFFFFFFFFF AND MUL OR SWAP1 SSTORE POP POP POP JUMPDEST DUP1 DUP1 PUSH1 0x1 ADD SWAP2 POP POP PUSH2 0x7BF JUMP JUMPDEST POP DUP1 DUP1 PUSH1 0x1 ADD SWAP2 POP POP PUSH2 0x7A5 JUMP JUMPDEST POP JUMP JUMPDEST PUSH1 0x40 MLOAD DUP1 PUSH1 0x60 ADD PUSH1 0x40 MSTORE DUP1 PUSH1 0x3 SWAP1 PUSH1 0x20 DUP3 MUL DUP1 CALLDATASIZE DUP4 CALLDATACOPY DUP1 DUP3 ADD SWAP2 POP POP SWAP1 POP POP SWAP1 JUMP JUMPDEST PUSH1 0x40 MLOAD DUP1 PUSH1 0x60 ADD PUSH1 0x40 MSTORE DUP1 PUSH1 0x3 SWAP1 PUSH1 0x20 DUP3 MUL DUP1 CALLDATASIZE DUP4 CALLDATACOPY DUP1 DUP3 ADD SWAP2 POP POP SWAP1 POP POP SWAP1 JUMP JUMPDEST PUSH0 DUP2 SWAP1 POP SWAP2 SWAP1 POP JUMP JUMPDEST PUSH32 0x4E487B7100000000000000000000000000000000000000000000000000000000 PUSH0 MSTORE PUSH1 0x11 PUSH1 0x4 MSTORE PUSH1 0x24 PUSH0 REVERT JUMPDEST PUSH0 PUSH2 0xA69 DUP3 PUSH2 0xA29 JUMP JUMPDEST SWAP2 POP PUSH2 0xA74 DUP4 PUSH2 0xA29 JUMP JUMPDEST SWAP3 POP DUP3 DUP3 ADD SWAP1 POP DUP1 DUP3 GT ISZERO PUSH2 0xA8C JUMPI PUSH2 0xA8B PUSH2 0xA32 JUMP JUMPDEST JUMPDEST SWAP3 SWAP2 POP POP JUMP JUMPDEST PUSH0 DUP1 REVERT JUMPDEST PUSH0 PUSH20 0xFFFFFFFFFFFFFFFFFFFFFFFFFFFFFFFFFFFFFFFF DUP3 AND SWAP1 POP SWAP2 SWAP1 POP JUMP JUMPDEST PUSH0 PUSH2 0xABF DUP3 PUSH2 0xA96 JUMP JUMPDEST SWAP1 POP SWAP2 SWAP1 POP JUMP JUMPDEST PUSH2 0xACF DUP2 PUSH2 0xAB5 JUMP JUMPDEST DUP2 EQ PUSH2 0xAD9 JUMPI PUSH0 DUP1 REVERT JUMPDEST POP JUMP JUMPDEST PUSH0 DUP2 CALLDATALOAD SWAP1 POP PUSH2 0xAEA DUP2 PUSH2 0xAC6 JUMP JUMPDEST SWAP3 SWAP2 POP POP JUMP JUMPDEST PUSH0 PUSH1 0x20 DUP3 DUP5 SUB SLT ISZERO PUSH2 0xB05 JUMPI PUSH2 0xB04 PUSH2 0xA92 JUMP JUMPDEST JUMPDEST PUSH0 PUSH2 0xB12 DUP5 DUP3 DUP6 ADD PUSH2 0xADC JUMP JUMPDEST SWAP2 POP POP SWAP3 SWAP2 POP POP JUMP JUMPDEST PUSH2 0xB24 DUP2 PUSH2 0xA29 JUMP JUMPDEST DUP3 MSTORE POP POP JUMP JUMPDEST PUSH0 PUSH1 0x20 DUP3 ADD SWAP1 POP PUSH2 0xB3D PUSH0 DUP4 ADD DUP5 PUSH2 0xB1B JUMP JUMPDEST SWAP3 SWAP2 POP POP JUMP JUMPDEST PUSH2 0xB4C DUP2 PUSH2 0xA29 JUMP JUMPDEST DUP2 EQ PUSH2 0xB56 JUMPI PUSH0 DUP1 REVERT JUMPDEST POP JUMP JUMPDEST PUSH0 DUP2 CALLDATALOAD SWAP1 POP PUSH2 0xB67 DUP2 PUSH2 0xB43 JUMP JUMPDEST SWAP3 SWAP2 POP POP JUMP JUMPDEST PUSH0 PUSH1 0x20 DUP3 DUP5 SUB SLT ISZERO PUSH2 0xB82 JUMPI PUSH2 0xB81 PUSH2 0xA92 JUMP JUMPDEST JUMPDEST PUSH0 PUSH2 0xB8F DUP5 DUP3 DUP6 ADD PUSH2 0xB59 JUMP JUMPDEST SWAP2 POP POP SWAP3 SWAP2 POP POP JUMP JUMPDEST PUSH2 0xBA1 DUP2 PUSH2 0xAB5 JUMP JUMPDEST DUP3 MSTORE POP POP JUMP JUMPDEST PUSH0 PUSH1 0x20 DUP3 ADD SWAP1 POP PUSH2 0xBBA PUSH0 DUP4 ADD DUP5 PUSH2 0xB98 JUMP JUMPDEST SWAP3 SWAP2 POP POP JUMP JUMPDEST PUSH0 PUSH1 0x3 SWAP1 POP SWAP2 SWAP1 POP JUMP JUMPDEST PUSH0 DUP2 SWAP1 POP SWAP3 SWAP2 POP POP JUMP JUMPDEST PUSH0 DUP2 SWAP1 POP SWAP2 SWAP1 POP JUMP JUMPDEST PUSH2 0xBE6 DUP2 PUSH2 0xAB5 JUMP JUMPDEST DUP3 MSTORE POP POP JUMP JUMPDEST PUSH0 PUSH2 0xBF7 DUP4 DUP4 PUSH2 0xBDD JUMP JUMPDEST PUSH1 0x20 DUP4 ADD SWAP1 POP SWAP3 SWAP2 POP POP JUMP JUMPDEST PUSH0 PUSH1 0x20 DUP3 ADD SWAP1 POP SWAP2 SWAP1 POP JUMP JUMPDEST PUSH2 0xC18 DUP2 PUSH2 0xBC0 JUMP JUMPDEST PUSH2 0xC22 DUP2 DUP5 PUSH2 0xBCA JUMP JUMPDEST SWAP3 POP PUSH2 0xC2D DUP3 PUSH2 0xBD4 JUMP JUMPDEST DUP1 PUSH0 JUMPDEST DUP4 DUP2 LT ISZERO PUSH2 0xC5D JUMPI DUP2 MLOAD PUSH2 0xC44 DUP8 DUP3 PUSH2 0xBEC JUMP JUMPDEST SWAP7 POP PUSH2 0xC4F DUP4 PUSH2 0xC03 JUMP JUMPDEST SWAP3 POP POP PUSH1 0x1 DUP2 ADD SWAP1 POP PUSH2 0xC30 JUMP JUMPDEST POP POP POP POP POP POP JUMP JUMPDEST PUSH0 PUSH1 0x3 SWAP1 POP SWAP2 SWAP1 POP JUMP JUMPDEST PUSH0 DUP2 SWAP1 POP SWAP3 SWAP2 POP POP JUMP JUMPDEST PUSH0 DUP2 SWAP1 POP SWAP2 SWAP1 POP JUMP JUMPDEST PUSH2 0xC8B DUP2 PUSH2 0xA29 JUMP JUMPDEST DUP3 MSTORE POP POP JUMP JUMPDEST PUSH0 PUSH2 0xC9C DUP4 DUP4 PUSH2 0xC82 JUMP JUMPDEST PUSH1 0x20 DUP4 ADD SWAP1 POP SWAP3 SWAP2 POP POP JUMP JUMPDEST PUSH0 PUSH1 0x20 DUP3 ADD SWAP1 POP SWAP2 SWAP1 POP JUMP JUMPDEST PUSH2 0xCBD DUP2 PUSH2 0xC65 JUMP JUMPDEST PUSH2 0xCC7 DUP2 DUP5 PUSH2 0xC6F JUMP JUMPDEST SWAP3 POP PUSH2 0xCD2 DUP3 PUSH2 0xC79 JUMP JUMPDEST DUP1 PUSH0 JUMPDEST DUP4 DUP2 LT ISZERO PUSH2 0xD02 JUMPI DUP2 MLOAD PUSH2 0xCE9 DUP8 DUP3 PUSH2 0xC91 JUMP JUMPDEST SWAP7 POP PUSH2 0xCF4 DUP4 PUSH2 0xCA8 JUMP JUMPDEST SWAP3 POP POP PUSH1 0x1 DUP2 ADD SWAP1 POP PUSH2 0xCD5 JUMP JUMPDEST POP POP POP POP POP POP JUMP JUMPDEST PUSH0 PUSH1 0xC0 DUP3 ADD SWAP1 POP PUSH2 0xD1D PUSH0 DUP4 ADD DUP6 PUSH2 0xC0F JUMP JUMPDEST PUSH2 0xD2A PUSH1 0x60 DUP4 ADD DUP5 PUSH2 0xCB4 JUMP JUMPDEST SWAP4 SWAP3 POP POP POP JUMP JUMPDEST PUSH32 0x4E487B7100000000000000000000000000000000000000000000000000000000 PUSH0 MSTORE PUSH1 0x32 PUSH1 0x4 MSTORE PUSH1 0x24 PUSH0 REVERT JUMPDEST PUSH0 DUP3 DUP3 MSTORE PUSH1 0x20 DUP3 ADD SWAP1 POP SWAP3 SWAP2 POP POP JUMP JUMPDEST PUSH32 0x4E6F7420617574686F72697A6564000000000000000000000000000000000000 PUSH0 DUP3 ADD MSTORE POP JUMP JUMPDEST PUSH0 PUSH2 0xDA2 PUSH1 0xE DUP4 PUSH2 0xD5E JUMP JUMPDEST SWAP2 POP PUSH2 0xDAD DUP3 PUSH2 0xD6E JUMP JUMPDEST PUSH1 0x20 DUP3 ADD SWAP1 POP SWAP2 SWAP1 POP JUMP JUMPDEST PUSH0 PUSH1 0x20 DUP3 ADD SWAP1 POP DUP2 DUP2 SUB PUSH0 DUP4 ADD MSTORE PUSH2 0xDCF DUP2 PUSH2 0xD96 JUMP JUMPDEST SWAP1 POP SWAP2 SWAP1 POP JUMP INVALID LOG2 PUSH5 0x6970667358 0x22 SLT KECCAK256 0xBC ADD ORIGIN PUSH28 0xA18B80BFDFA3BD89F4F481435578CD2D5BB6FFB8D65361F272177815 PUSH5 0x736F6C6343 STOP ADDMOD BYTE STOP CALLER "
				},
				"gasEstimates": {
					"creation": {
						"codeDepositCost": "719200",
						"executionCost": "infinite",
						"totalCost": "infinite"
					},
					"external": {
						"admin()": "infinite",
						"balances(address)": "2779",
						"getTopUsers()": "infinite",
						"topUsers(uint256)": "2817",
						"withdraw()": "infinite"
					},
					"internal": {
						"_sortTopUsers()": "infinite",
						"_updateTopUsers(address)": "infinite"
					}
				},
				"methodIdentifiers": {
					"admin()": "f851a440",
					"balances(address)": "27e235e3",
					"getTopUsers()": "f39dfb17",
					"topUsers(uint256)": "689dbf4e",
					"withdraw()": "3ccfd60b"
				}
			},
			"storageLayout": {
				"storage": [
					{
						"astId": 7,
						"contract": "bankContract.sol:Bank",
						"label": "balances",
						"offset": 0,
						"slot": "0",
						"type": "t_mapping(t_address,t_uint256)"
					},
					{
						"astId": 11,
						"contract": "bankContract.sol:Bank",
						"label": "topUsers",
						"offset": 0,
						"slot": "1",
						"type": "t_array(t_address)3_storage"
					}
				],
				"types": {
					"t_address": {
						"encoding": "inplace",
						"label": "address",
						"numberOfBytes": "20"
					},
					"t_array(t_address)3_storage": {
						"base": "t_address",
						"encoding": "inplace",
						"label": "address[3]",
						"numberOfBytes": "96"
					},
					"t_mapping(t_address,t_uint256)": {
						"encoding": "mapping",
						"key": "t_address",
						"label": "mapping(address => uint256)",
						"numberOfBytes": "32",
						"value": "t_uint256"
					},
					"t_uint256": {
						"encoding": "inplace",
						"label": "uint256",
						"numberOfBytes": "32"
					}
				}
			},
			"userdoc": {
				"kind": "user",
				"methods": {},
				"version": 1
			}
		}
	}
}