{
	"third_day/bankContract.sol": {
		"Bank": {
			"abi": [
				{
					"inputs": [],
					"stateMutability": "nonpayable",
					"type": "constructor"
				},
				{
					"inputs": [],
					"name": "admin",
					"outputs": [
						{
							"internalType": "address",
							"name": "",
							"type": "address"
						}
					],
					"stateMutability": "view",
					"type": "function"
				},
				{
					"inputs": [
						{
							"internalType": "address",
							"name": "",
							"type": "address"
						}
					],
					"name": "balances",
					"outputs": [
						{
							"internalType": "uint256",
							"name": "",
							"type": "uint256"
						}
					],
					"stateMutability": "view",
					"type": "function"
				},
				{
					"inputs": [
						{
							"internalType": "uint256",
							"name": "",
							"type": "uint256"
						}
					],
					"name": "top3Depositors",
					"outputs": [
						{
							"internalType": "address",
							"name": "",
							"type": "address"
						}
					],
					"stateMutability": "view",
					"type": "function"
				},
				{
					"inputs": [],
					"name": "withdraw",
					"outputs": [],
					"stateMutability": "nonpayable",
					"type": "function"
				},
				{
					"stateMutability": "payable",
					"type": "receive"
				}
			],
			"devdoc": {
				"kind": "dev",
				"methods": {},
				"version": 1
			},
			"evm": {
				"assembly": "    /* \"third_day/bankContract.sol\":58:2385  contract Bank {... */\n  mstore(0x40, 0x80)\n    /* \"third_day/bankContract.sol\":356:405  constructor() {... */\n  callvalue\n  dup1\n  iszero\n  tag_1\n  jumpi\n  0x00\n  dup1\n  revert\ntag_1:\n  pop\n    /* \"third_day/bankContract.sol\":388:398  msg.sender */\n  caller\n    /* \"third_day/bankContract.sol\":380:385  admin */\n  0x00\n  dup1\n    /* \"third_day/bankContract.sol\":380:398  admin = msg.sender */\n  0x0100\n  exp\n  dup2\n  sload\n  dup2\n  0xffffffffffffffffffffffffffffffffffffffff\n  mul\n  not\n  and\n  swap1\n  dup4\n  0xffffffffffffffffffffffffffffffffffffffff\n  and\n  mul\n  or\n  swap1\n  sstore\n  pop\n    /* \"third_day/bankContract.sol\":58:2385  contract Bank {... */\n  dataSize(sub_0)\n  dup1\n  dataOffset(sub_0)\n  0x00\n  codecopy\n  0x00\n  return\nstop\n\nsub_0: assembly {\n        /* \"third_day/bankContract.sol\":58:2385  contract Bank {... */\n      mstore(0x40, 0x80)\n      jumpi(tag_1, lt(calldatasize, 0x04))\n      shr(0xe0, calldataload(0x00))\n      dup1\n      0x27e235e3\n      eq\n      tag_3\n      jumpi\n      dup1\n      0x3ccfd60b\n      eq\n      tag_4\n      jumpi\n      dup1\n      0xd0e25467\n      eq\n      tag_5\n      jumpi\n      dup1\n      0xf851a440\n      eq\n      tag_6\n      jumpi\n      jump(tag_2)\n    tag_1:\n      jumpi(tag_2, calldatasize)\n        /* \"third_day/bankContract.sol\":540:549  msg.value */\n      callvalue\n        /* \"third_day/bankContract.sol\":516:524  balances */\n      0x01\n        /* \"third_day/bankContract.sol\":516:536  balances[msg.sender] */\n      0x00\n        /* \"third_day/bankContract.sol\":525:535  msg.sender */\n      caller\n        /* \"third_day/bankContract.sol\":516:536  balances[msg.sender] */\n      0xffffffffffffffffffffffffffffffffffffffff\n      and\n      0xffffffffffffffffffffffffffffffffffffffff\n      and\n      dup2\n      mstore\n      0x20\n      add\n      swap1\n      dup2\n      mstore\n      0x20\n      add\n      0x00\n      keccak256\n      0x00\n        /* \"third_day/bankContract.sol\":516:549  balances[msg.sender] += msg.value */\n      dup3\n      dup3\n      sload\n      tag_9\n      swap2\n      swap1\n      tag_10\n      jump\t// in\n    tag_9:\n      swap3\n      pop\n      pop\n      dup2\n      swap1\n      sstore\n      pop\n        /* \"third_day/bankContract.sol\":559:591  updateTop3Depositors(msg.sender) */\n      tag_11\n        /* \"third_day/bankContract.sol\":580:590  msg.sender */\n      caller\n        /* \"third_day/bankContract.sol\":559:579  updateTop3Depositors */\n      tag_12\n        /* \"third_day/bankContract.sol\":559:591  updateTop3Depositors(msg.sender) */\n      jump\t// in\n    tag_11:\n        /* \"third_day/bankContract.sol\":58:2385  contract Bank {... */\n      stop\n    tag_2:\n      0x00\n      dup1\n      revert\n        /* \"third_day/bankContract.sol\":168:211  mapping(address => uint256) public balances */\n    tag_3:\n      callvalue\n      dup1\n      iszero\n      tag_13\n      jumpi\n      0x00\n      dup1\n      revert\n    tag_13:\n      pop\n      tag_14\n      0x04\n      dup1\n      calldatasize\n      sub\n      dup2\n      add\n      swap1\n      tag_15\n      swap2\n      swap1\n      tag_16\n      jump\t// in\n    tag_15:\n      tag_17\n      jump\t// in\n    tag_14:\n      mload(0x40)\n      tag_18\n      swap2\n      swap1\n      tag_19\n      jump\t// in\n    tag_18:\n      mload(0x40)\n      dup1\n      swap2\n      sub\n      swap1\n      return\n        /* \"third_day/bankContract.sol\":660:762  function withdraw() external onlyAdmin {... */\n    tag_4:\n      callvalue\n      dup1\n      iszero\n      tag_20\n      jumpi\n      0x00\n      dup1\n      revert\n    tag_20:\n      pop\n      tag_21\n      tag_22\n      jump\t// in\n    tag_21:\n      stop\n        /* \"third_day/bankContract.sol\":258:290  address[3] public top3Depositors */\n    tag_5:\n      callvalue\n      dup1\n      iszero\n      tag_23\n      jumpi\n      0x00\n      dup1\n      revert\n    tag_23:\n      pop\n      tag_24\n      0x04\n      dup1\n      calldatasize\n      sub\n      dup2\n      add\n      swap1\n      tag_25\n      swap2\n      swap1\n      tag_26\n      jump\t// in\n    tag_25:\n      tag_27\n      jump\t// in\n    tag_24:\n      mload(0x40)\n      tag_28\n      swap2\n      swap1\n      tag_29\n      jump\t// in\n    tag_28:\n      mload(0x40)\n      dup1\n      swap2\n      sub\n      swap1\n      return\n        /* \"third_day/bankContract.sol\":101:121  address public admin */\n    tag_6:\n      callvalue\n      dup1\n      iszero\n      tag_30\n      jumpi\n      0x00\n      dup1\n      revert\n    tag_30:\n      pop\n      tag_31\n      tag_32\n      jump\t// in\n    tag_31:\n      mload(0x40)\n      tag_33\n      swap2\n      swap1\n      tag_29\n      jump\t// in\n    tag_33:\n      mload(0x40)\n      dup1\n      swap2\n      sub\n      swap1\n      return\n        /* \"third_day/bankContract.sol\":818:1748  function updateTop3Depositors(address depositor) internal {... */\n    tag_12:\n        /* \"third_day/bankContract.sol\":949:962  bool isInTop3 */\n      0x00\n        /* \"third_day/bankContract.sol\":985:994  uint256 i */\n      dup1\n        /* \"third_day/bankContract.sol\":980:1143  for (uint256 i = 0; i < 3; i++) {... */\n    tag_35:\n        /* \"third_day/bankContract.sol\":1004:1005  3 */\n      0x03\n        /* \"third_day/bankContract.sol\":1000:1001  i */\n      dup2\n        /* \"third_day/bankContract.sol\":1000:1005  i < 3 */\n      lt\n        /* \"third_day/bankContract.sol\":980:1143  for (uint256 i = 0; i < 3; i++) {... */\n      iszero\n      tag_36\n      jumpi\n        /* \"third_day/bankContract.sol\":1051:1060  depositor */\n      dup3\n        /* \"third_day/bankContract.sol\":1030:1060  top3Depositors[i] == depositor */\n      0xffffffffffffffffffffffffffffffffffffffff\n      and\n        /* \"third_day/bankContract.sol\":1030:1044  top3Depositors */\n      0x02\n        /* \"third_day/bankContract.sol\":1045:1046  i */\n      dup3\n        /* \"third_day/bankContract.sol\":1030:1047  top3Depositors[i] */\n      0x03\n      dup2\n      lt\n      tag_38\n      jumpi\n      tag_39\n      tag_40\n      jump\t// in\n    tag_39:\n    tag_38:\n      add\n      0x00\n      swap1\n      sload\n      swap1\n      0x0100\n      exp\n      swap1\n      div\n      0xffffffffffffffffffffffffffffffffffffffff\n      and\n        /* \"third_day/bankContract.sol\":1030:1060  top3Depositors[i] == depositor */\n      0xffffffffffffffffffffffffffffffffffffffff\n      and\n      sub\n        /* \"third_day/bankContract.sol\":1026:1133  if (top3Depositors[i] == depositor) {... */\n      tag_42\n      jumpi\n        /* \"third_day/bankContract.sol\":1091:1095  true */\n      0x01\n        /* \"third_day/bankContract.sol\":1080:1095  isInTop3 = true */\n      swap2\n      pop\n        /* \"third_day/bankContract.sol\":1113:1118  break */\n      jump(tag_36)\n        /* \"third_day/bankContract.sol\":1026:1133  if (top3Depositors[i] == depositor) {... */\n    tag_42:\n        /* \"third_day/bankContract.sol\":1007:1010  i++ */\n      dup1\n      dup1\n      0x01\n      add\n      swap2\n      pop\n      pop\n        /* \"third_day/bankContract.sol\":980:1143  for (uint256 i = 0; i < 3; i++) {... */\n      jump(tag_35)\n    tag_36:\n      pop\n        /* \"third_day/bankContract.sol\":1158:1166  isInTop3 */\n      dup1\n        /* \"third_day/bankContract.sol\":1153:1742  if (!isInTop3) {... */\n      tag_43\n      jumpi\n        /* \"third_day/bankContract.sol\":1224:1233  uint256 i */\n      0x00\n        /* \"third_day/bankContract.sol\":1219:1460  for (uint256 i = 0; i < 3; i++) {... */\n    tag_44:\n        /* \"third_day/bankContract.sol\":1243:1244  3 */\n      0x03\n        /* \"third_day/bankContract.sol\":1239:1240  i */\n      dup2\n        /* \"third_day/bankContract.sol\":1239:1244  i < 3 */\n      lt\n        /* \"third_day/bankContract.sol\":1219:1460  for (uint256 i = 0; i < 3; i++) {... */\n      iszero\n      tag_45\n      jumpi\n        /* \"third_day/bankContract.sol\":1302:1303  0 */\n      0x00\n        /* \"third_day/bankContract.sol\":1273:1304  top3Depositors[i] == address(0) */\n      0xffffffffffffffffffffffffffffffffffffffff\n      and\n        /* \"third_day/bankContract.sol\":1273:1287  top3Depositors */\n      0x02\n        /* \"third_day/bankContract.sol\":1288:1289  i */\n      dup3\n        /* \"third_day/bankContract.sol\":1273:1290  top3Depositors[i] */\n      0x03\n      dup2\n      lt\n      tag_47\n      jumpi\n      tag_48\n      tag_40\n      jump\t// in\n    tag_48:\n    tag_47:\n      add\n      0x00\n      swap1\n      sload\n      swap1\n      0x0100\n      exp\n      swap1\n      div\n      0xffffffffffffffffffffffffffffffffffffffff\n      and\n        /* \"third_day/bankContract.sol\":1273:1304  top3Depositors[i] == address(0) */\n      0xffffffffffffffffffffffffffffffffffffffff\n      and\n      sub\n        /* \"third_day/bankContract.sol\":1269:1446  if (top3Depositors[i] == address(0)) {... */\n      tag_50\n      jumpi\n        /* \"third_day/bankContract.sol\":1348:1357  depositor */\n      dup3\n        /* \"third_day/bankContract.sol\":1328:1342  top3Depositors */\n      0x02\n        /* \"third_day/bankContract.sol\":1343:1344  i */\n      dup3\n        /* \"third_day/bankContract.sol\":1328:1345  top3Depositors[i] */\n      0x03\n      dup2\n      lt\n      tag_51\n      jumpi\n      tag_52\n      tag_40\n      jump\t// in\n    tag_52:\n    tag_51:\n      add\n      0x00\n        /* \"third_day/bankContract.sol\":1328:1357  top3Depositors[i] = depositor */\n      0x0100\n      exp\n      dup2\n      sload\n      dup2\n      0xffffffffffffffffffffffffffffffffffffffff\n      mul\n      not\n      and\n      swap1\n      dup4\n      0xffffffffffffffffffffffffffffffffffffffff\n      and\n      mul\n      or\n      swap1\n      sstore\n      pop\n        /* \"third_day/bankContract.sol\":1379:1399  sortTop3Depositors() */\n      tag_54\n        /* \"third_day/bankContract.sol\":1379:1397  sortTop3Depositors */\n      tag_55\n        /* \"third_day/bankContract.sol\":1379:1399  sortTop3Depositors() */\n      jump\t// in\n    tag_54:\n        /* \"third_day/bankContract.sol\":1421:1428  return; */\n      pop\n      pop\n      jump(tag_34)\n        /* \"third_day/bankContract.sol\":1269:1446  if (top3Depositors[i] == address(0)) {... */\n    tag_50:\n        /* \"third_day/bankContract.sol\":1246:1249  i++ */\n      dup1\n      dup1\n      0x01\n      add\n      swap2\n      pop\n      pop\n        /* \"third_day/bankContract.sol\":1219:1460  for (uint256 i = 0; i < 3; i++) {... */\n      jump(tag_44)\n    tag_45:\n      pop\n        /* \"third_day/bankContract.sol\":1552:1560  balances */\n      0x01\n        /* \"third_day/bankContract.sol\":1552:1579  balances[top3Depositors[2]] */\n      0x00\n        /* \"third_day/bankContract.sol\":1561:1575  top3Depositors */\n      0x02\n        /* \"third_day/bankContract.sol\":1576:1577  2 */\n      dup1\n        /* \"third_day/bankContract.sol\":1561:1578  top3Depositors[2] */\n      0x03\n      dup2\n      lt\n      tag_56\n      jumpi\n      tag_57\n      tag_40\n      jump\t// in\n    tag_57:\n    tag_56:\n      add\n      0x00\n      swap1\n      sload\n      swap1\n      0x0100\n      exp\n      swap1\n      div\n      0xffffffffffffffffffffffffffffffffffffffff\n      and\n        /* \"third_day/bankContract.sol\":1552:1579  balances[top3Depositors[2]] */\n      0xffffffffffffffffffffffffffffffffffffffff\n      and\n      0xffffffffffffffffffffffffffffffffffffffff\n      and\n      dup2\n      mstore\n      0x20\n      add\n      swap1\n      dup2\n      mstore\n      0x20\n      add\n      0x00\n      keccak256\n      sload\n        /* \"third_day/bankContract.sol\":1530:1538  balances */\n      0x01\n        /* \"third_day/bankContract.sol\":1530:1549  balances[depositor] */\n      0x00\n        /* \"third_day/bankContract.sol\":1539:1548  depositor */\n      dup5\n        /* \"third_day/bankContract.sol\":1530:1549  balances[depositor] */\n      0xffffffffffffffffffffffffffffffffffffffff\n      and\n      0xffffffffffffffffffffffffffffffffffffffff\n      and\n      dup2\n      mstore\n      0x20\n      add\n      swap1\n      dup2\n      mstore\n      0x20\n      add\n      0x00\n      keccak256\n      sload\n        /* \"third_day/bankContract.sol\":1530:1579  balances[depositor] > balances[top3Depositors[2]] */\n      gt\n        /* \"third_day/bankContract.sol\":1526:1681  if (balances[depositor] > balances[top3Depositors[2]]) {... */\n      iszero\n      tag_59\n      jumpi\n        /* \"third_day/bankContract.sol\":1619:1628  depositor */\n      dup2\n        /* \"third_day/bankContract.sol\":1599:1613  top3Depositors */\n      0x02\n        /* \"third_day/bankContract.sol\":1614:1615  2 */\n      dup1\n        /* \"third_day/bankContract.sol\":1599:1616  top3Depositors[2] */\n      0x03\n      dup2\n      lt\n      tag_60\n      jumpi\n      tag_61\n      tag_40\n      jump\t// in\n    tag_61:\n    tag_60:\n      add\n      0x00\n        /* \"third_day/bankContract.sol\":1599:1628  top3Depositors[2] = depositor */\n      0x0100\n      exp\n      dup2\n      sload\n      dup2\n      0xffffffffffffffffffffffffffffffffffffffff\n      mul\n      not\n      and\n      swap1\n      dup4\n      0xffffffffffffffffffffffffffffffffffffffff\n      and\n      mul\n      or\n      swap1\n      sstore\n      pop\n        /* \"third_day/bankContract.sol\":1646:1666  sortTop3Depositors() */\n      tag_63\n        /* \"third_day/bankContract.sol\":1646:1664  sortTop3Depositors */\n      tag_55\n        /* \"third_day/bankContract.sol\":1646:1666  sortTop3Depositors() */\n      jump\t// in\n    tag_63:\n        /* \"third_day/bankContract.sol\":1526:1681  if (balances[depositor] > balances[top3Depositors[2]]) {... */\n    tag_59:\n        /* \"third_day/bankContract.sol\":1153:1742  if (!isInTop3) {... */\n      jump(tag_64)\n    tag_43:\n        /* \"third_day/bankContract.sol\":1711:1731  sortTop3Depositors() */\n      tag_65\n        /* \"third_day/bankContract.sol\":1711:1729  sortTop3Depositors */\n      tag_55\n        /* \"third_day/bankContract.sol\":1711:1731  sortTop3Depositors() */\n      jump\t// in\n    tag_65:\n        /* \"third_day/bankContract.sol\":1153:1742  if (!isInTop3) {... */\n    tag_64:\n        /* \"third_day/bankContract.sol\":876:1748  {... */\n      pop\n        /* \"third_day/bankContract.sol\":818:1748  function updateTop3Depositors(address depositor) internal {... */\n    tag_34:\n      pop\n      jump\t// out\n        /* \"third_day/bankContract.sol\":168:211  mapping(address => uint256) public balances */\n    tag_17:\n      mstore(0x20, 0x01)\n      dup1\n      0x00\n      mstore\n      keccak256(0x00, 0x40)\n      0x00\n      swap2\n      pop\n      swap1\n      pop\n      sload\n      dup2\n      jump\t// out\n        /* \"third_day/bankContract.sol\":660:762  function withdraw() external onlyAdmin {... */\n    tag_22:\n        /* \"third_day/bankContract.sol\":2322:2327  admin */\n      0x00\n      dup1\n      sload\n      swap1\n      0x0100\n      exp\n      swap1\n      div\n      0xffffffffffffffffffffffffffffffffffffffff\n      and\n        /* \"third_day/bankContract.sol\":2308:2327  msg.sender == admin */\n      0xffffffffffffffffffffffffffffffffffffffff\n      and\n        /* \"third_day/bankContract.sol\":2308:2318  msg.sender */\n      caller\n        /* \"third_day/bankContract.sol\":2308:2327  msg.sender == admin */\n      0xffffffffffffffffffffffffffffffffffffffff\n      and\n      eq\n        /* \"third_day/bankContract.sol\":2300:2365  require(msg.sender == admin, \"Only admin can call this function\") */\n      tag_67\n      jumpi\n      mload(0x40)\n      0x08c379a000000000000000000000000000000000000000000000000000000000\n      dup2\n      mstore\n      0x04\n      add\n      tag_68\n      swap1\n      tag_69\n      jump\t// in\n    tag_68:\n      mload(0x40)\n      dup1\n      swap2\n      sub\n      swap1\n      revert\n    tag_67:\n        /* \"third_day/bankContract.sol\":717:722  admin */\n      0x00\n      dup1\n      sload\n      swap1\n      0x0100\n      exp\n      swap1\n      div\n      0xffffffffffffffffffffffffffffffffffffffff\n      and\n        /* \"third_day/bankContract.sol\":709:732  payable(admin).transfer */\n      0xffffffffffffffffffffffffffffffffffffffff\n      and\n        /* \"third_day/bankContract.sol\":709:755  payable(admin).transfer(address(this).balance) */\n      0x08fc\n        /* \"third_day/bankContract.sol\":733:754  address(this).balance */\n      selfbalance\n        /* \"third_day/bankContract.sol\":709:755  payable(admin).transfer(address(this).balance) */\n      swap1\n      dup2\n      iszero\n      mul\n      swap1\n      mload(0x40)\n      0x00\n      mload(0x40)\n      dup1\n      dup4\n      sub\n      dup2\n      dup6\n      dup9\n      dup9\n      call\n      swap4\n      pop\n      pop\n      pop\n      pop\n      iszero\n      dup1\n      iszero\n      tag_72\n      jumpi\n      returndatasize\n      0x00\n      dup1\n      returndatacopy\n      revert(0x00, returndatasize)\n    tag_72:\n      pop\n        /* \"third_day/bankContract.sol\":660:762  function withdraw() external onlyAdmin {... */\n      jump\t// out\n        /* \"third_day/bankContract.sol\":258:290  address[3] public top3Depositors */\n    tag_27:\n      0x02\n      dup2\n      0x03\n      dup2\n      lt\n      tag_73\n      jumpi\n      0x00\n      dup1\n      revert\n    tag_73:\n      add\n      0x00\n      swap2\n      pop\n      sload\n      swap1\n      0x0100\n      exp\n      swap1\n      div\n      0xffffffffffffffffffffffffffffffffffffffff\n      and\n      dup2\n      jump\t// out\n        /* \"third_day/bankContract.sol\":101:121  address public admin */\n    tag_32:\n      0x00\n      dup1\n      sload\n      swap1\n      0x0100\n      exp\n      swap1\n      div\n      0xffffffffffffffffffffffffffffffffffffffff\n      and\n      dup2\n      jump\t// out\n        /* \"third_day/bankContract.sol\":1814:2234  function sortTop3Depositors() internal {... */\n    tag_55:\n        /* \"third_day/bankContract.sol\":1868:1877  uint256 i */\n      0x00\n        /* \"third_day/bankContract.sol\":1863:2228  for (uint256 i = 0; i < 2; i++) {... */\n    tag_76:\n        /* \"third_day/bankContract.sol\":1887:1888  2 */\n      0x02\n        /* \"third_day/bankContract.sol\":1883:1884  i */\n      dup2\n        /* \"third_day/bankContract.sol\":1883:1888  i < 2 */\n      lt\n        /* \"third_day/bankContract.sol\":1863:2228  for (uint256 i = 0; i < 2; i++) {... */\n      iszero\n      tag_77\n      jumpi\n        /* \"third_day/bankContract.sol\":1914:1923  uint256 j */\n      0x00\n        /* \"third_day/bankContract.sol\":1930:1931  1 */\n      0x01\n        /* \"third_day/bankContract.sol\":1926:1927  i */\n      dup3\n        /* \"third_day/bankContract.sol\":1926:1931  i + 1 */\n      tag_82\n      swap2\n      swap1\n      tag_10\n      jump\t// in\n    tag_82:\n        /* \"third_day/bankContract.sol\":1914:1931  uint256 j = i + 1 */\n      swap1\n      pop\n        /* \"third_day/bankContract.sol\":1909:2218  for (uint256 j = i + 1; j < 3; j++) {... */\n    tag_79:\n        /* \"third_day/bankContract.sol\":1937:1938  3 */\n      0x03\n        /* \"third_day/bankContract.sol\":1933:1934  j */\n      dup2\n        /* \"third_day/bankContract.sol\":1933:1938  j < 3 */\n      lt\n        /* \"third_day/bankContract.sol\":1909:2218  for (uint256 j = i + 1; j < 3; j++) {... */\n      iszero\n      tag_80\n      jumpi\n        /* \"third_day/bankContract.sol\":1997:2005  balances */\n      0x01\n        /* \"third_day/bankContract.sol\":1997:2024  balances[top3Depositors[j]] */\n      0x00\n        /* \"third_day/bankContract.sol\":2006:2020  top3Depositors */\n      0x02\n        /* \"third_day/bankContract.sol\":2021:2022  j */\n      dup4\n        /* \"third_day/bankContract.sol\":2006:2023  top3Depositors[j] */\n      0x03\n      dup2\n      lt\n      tag_83\n      jumpi\n      tag_84\n      tag_40\n      jump\t// in\n    tag_84:\n    tag_83:\n      add\n      0x00\n      swap1\n      sload\n      swap1\n      0x0100\n      exp\n      swap1\n      div\n      0xffffffffffffffffffffffffffffffffffffffff\n      and\n        /* \"third_day/bankContract.sol\":1997:2024  balances[top3Depositors[j]] */\n      0xffffffffffffffffffffffffffffffffffffffff\n      and\n      0xffffffffffffffffffffffffffffffffffffffff\n      and\n      dup2\n      mstore\n      0x20\n      add\n      swap1\n      dup2\n      mstore\n      0x20\n      add\n      0x00\n      keccak256\n      sload\n        /* \"third_day/bankContract.sol\":1967:1975  balances */\n      0x01\n        /* \"third_day/bankContract.sol\":1967:1994  balances[top3Depositors[i]] */\n      0x00\n        /* \"third_day/bankContract.sol\":1976:1990  top3Depositors */\n      0x02\n        /* \"third_day/bankContract.sol\":1991:1992  i */\n      dup6\n        /* \"third_day/bankContract.sol\":1976:1993  top3Depositors[i] */\n      0x03\n      dup2\n      lt\n      tag_86\n      jumpi\n      tag_87\n      tag_40\n      jump\t// in\n    tag_87:\n    tag_86:\n      add\n      0x00\n      swap1\n      sload\n      swap1\n      0x0100\n      exp\n      swap1\n      div\n      0xffffffffffffffffffffffffffffffffffffffff\n      and\n        /* \"third_day/bankContract.sol\":1967:1994  balances[top3Depositors[i]] */\n      0xffffffffffffffffffffffffffffffffffffffff\n      and\n      0xffffffffffffffffffffffffffffffffffffffff\n      and\n      dup2\n      mstore\n      0x20\n      add\n      swap1\n      dup2\n      mstore\n      0x20\n      add\n      0x00\n      keccak256\n      sload\n        /* \"third_day/bankContract.sol\":1967:2024  balances[top3Depositors[i]] < balances[top3Depositors[j]] */\n      lt\n        /* \"third_day/bankContract.sol\":1963:2204  if (balances[top3Depositors[i]] < balances[top3Depositors[j]]) {... */\n      iszero\n      tag_89\n      jumpi\n        /* \"third_day/bankContract.sol\":2048:2060  address temp */\n      0x00\n        /* \"third_day/bankContract.sol\":2063:2077  top3Depositors */\n      0x02\n        /* \"third_day/bankContract.sol\":2078:2079  i */\n      dup4\n        /* \"third_day/bankContract.sol\":2063:2080  top3Depositors[i] */\n      0x03\n      dup2\n      lt\n      tag_90\n      jumpi\n      tag_91\n      tag_40\n      jump\t// in\n    tag_91:\n    tag_90:\n      add\n      0x00\n      swap1\n      sload\n      swap1\n      0x0100\n      exp\n      swap1\n      div\n      0xffffffffffffffffffffffffffffffffffffffff\n      and\n        /* \"third_day/bankContract.sol\":2048:2080  address temp = top3Depositors[i] */\n      swap1\n      pop\n        /* \"third_day/bankContract.sol\":2122:2136  top3Depositors */\n      0x02\n        /* \"third_day/bankContract.sol\":2137:2138  j */\n      dup3\n        /* \"third_day/bankContract.sol\":2122:2139  top3Depositors[j] */\n      0x03\n      dup2\n      lt\n      tag_93\n      jumpi\n      tag_94\n      tag_40\n      jump\t// in\n    tag_94:\n    tag_93:\n      add\n      0x00\n      swap1\n      sload\n      swap1\n      0x0100\n      exp\n      swap1\n      div\n      0xffffffffffffffffffffffffffffffffffffffff\n      and\n        /* \"third_day/bankContract.sol\":2102:2116  top3Depositors */\n      0x02\n        /* \"third_day/bankContract.sol\":2117:2118  i */\n      dup5\n        /* \"third_day/bankContract.sol\":2102:2119  top3Depositors[i] */\n      0x03\n      dup2\n      lt\n      tag_96\n      jumpi\n      tag_97\n      tag_40\n      jump\t// in\n    tag_97:\n    tag_96:\n      add\n      0x00\n        /* \"third_day/bankContract.sol\":2102:2139  top3Depositors[i] = top3Depositors[j] */\n      0x0100\n      exp\n      dup2\n      sload\n      dup2\n      0xffffffffffffffffffffffffffffffffffffffff\n      mul\n      not\n      and\n      swap1\n      dup4\n      0xffffffffffffffffffffffffffffffffffffffff\n      and\n      mul\n      or\n      swap1\n      sstore\n      pop\n        /* \"third_day/bankContract.sol\":2181:2185  temp */\n      dup1\n        /* \"third_day/bankContract.sol\":2161:2175  top3Depositors */\n      0x02\n        /* \"third_day/bankContract.sol\":2176:2177  j */\n      dup4\n        /* \"third_day/bankContract.sol\":2161:2178  top3Depositors[j] */\n      0x03\n      dup2\n      lt\n      tag_99\n      jumpi\n      tag_100\n      tag_40\n      jump\t// in\n    tag_100:\n    tag_99:\n      add\n      0x00\n        /* \"third_day/bankContract.sol\":2161:2185  top3Depositors[j] = temp */\n      0x0100\n      exp\n      dup2\n      sload\n      dup2\n      0xffffffffffffffffffffffffffffffffffffffff\n      mul\n      not\n      and\n      swap1\n      dup4\n      0xffffffffffffffffffffffffffffffffffffffff\n      and\n      mul\n      or\n      swap1\n      sstore\n      pop\n        /* \"third_day/bankContract.sol\":2026:2204  {... */\n      pop\n        /* \"third_day/bankContract.sol\":1963:2204  if (balances[top3Depositors[i]] < balances[top3Depositors[j]]) {... */\n    tag_89:\n        /* \"third_day/bankContract.sol\":1940:1943  j++ */\n      dup1\n      dup1\n      0x01\n      add\n      swap2\n      pop\n      pop\n        /* \"third_day/bankContract.sol\":1909:2218  for (uint256 j = i + 1; j < 3; j++) {... */\n      jump(tag_79)\n    tag_80:\n      pop\n        /* \"third_day/bankContract.sol\":1890:1893  i++ */\n      dup1\n      dup1\n      0x01\n      add\n      swap2\n      pop\n      pop\n        /* \"third_day/bankContract.sol\":1863:2228  for (uint256 i = 0; i < 2; i++) {... */\n      jump(tag_76)\n    tag_77:\n      pop\n        /* \"third_day/bankContract.sol\":1814:2234  function sortTop3Depositors() internal {... */\n      jump\t// out\n        /* \"#utility.yul\":7:84   */\n    tag_102:\n        /* \"#utility.yul\":44:51   */\n      0x00\n        /* \"#utility.yul\":73:78   */\n      dup2\n        /* \"#utility.yul\":62:78   */\n      swap1\n      pop\n        /* \"#utility.yul\":7:84   */\n      swap2\n      swap1\n      pop\n      jump\t// out\n        /* \"#utility.yul\":90:270   */\n    tag_103:\n        /* \"#utility.yul\":138:215   */\n      0x4e487b7100000000000000000000000000000000000000000000000000000000\n        /* \"#utility.yul\":135:136   */\n      0x00\n        /* \"#utility.yul\":128:216   */\n      mstore\n        /* \"#utility.yul\":235:239   */\n      0x11\n        /* \"#utility.yul\":232:233   */\n      0x04\n        /* \"#utility.yul\":225:240   */\n      mstore\n        /* \"#utility.yul\":259:263   */\n      0x24\n        /* \"#utility.yul\":256:257   */\n      0x00\n        /* \"#utility.yul\":249:264   */\n      revert\n        /* \"#utility.yul\":276:467   */\n    tag_10:\n        /* \"#utility.yul\":316:319   */\n      0x00\n        /* \"#utility.yul\":335:355   */\n      tag_122\n        /* \"#utility.yul\":353:354   */\n      dup3\n        /* \"#utility.yul\":335:355   */\n      tag_102\n      jump\t// in\n    tag_122:\n        /* \"#utility.yul\":330:355   */\n      swap2\n      pop\n        /* \"#utility.yul\":369:389   */\n      tag_123\n        /* \"#utility.yul\":387:388   */\n      dup4\n        /* \"#utility.yul\":369:389   */\n      tag_102\n      jump\t// in\n    tag_123:\n        /* \"#utility.yul\":364:389   */\n      swap3\n      pop\n        /* \"#utility.yul\":412:413   */\n      dup3\n        /* \"#utility.yul\":409:410   */\n      dup3\n        /* \"#utility.yul\":405:414   */\n      add\n        /* \"#utility.yul\":398:414   */\n      swap1\n      pop\n        /* \"#utility.yul\":433:436   */\n      dup1\n        /* \"#utility.yul\":430:431   */\n      dup3\n        /* \"#utility.yul\":427:437   */\n      gt\n        /* \"#utility.yul\":424:460   */\n      iszero\n      tag_124\n      jumpi\n        /* \"#utility.yul\":440:458   */\n      tag_125\n      tag_103\n      jump\t// in\n    tag_125:\n        /* \"#utility.yul\":424:460   */\n    tag_124:\n        /* \"#utility.yul\":276:467   */\n      swap3\n      swap2\n      pop\n      pop\n      jump\t// out\n        /* \"#utility.yul\":554:671   */\n    tag_105:\n        /* \"#utility.yul\":663:664   */\n      0x00\n        /* \"#utility.yul\":660:661   */\n      dup1\n        /* \"#utility.yul\":653:665   */\n      revert\n        /* \"#utility.yul\":800:926   */\n    tag_107:\n        /* \"#utility.yul\":837:844   */\n      0x00\n        /* \"#utility.yul\":877:919   */\n      0xffffffffffffffffffffffffffffffffffffffff\n        /* \"#utility.yul\":870:875   */\n      dup3\n        /* \"#utility.yul\":866:920   */\n      and\n        /* \"#utility.yul\":855:920   */\n      swap1\n      pop\n        /* \"#utility.yul\":800:926   */\n      swap2\n      swap1\n      pop\n      jump\t// out\n        /* \"#utility.yul\":932:1028   */\n    tag_108:\n        /* \"#utility.yul\":969:976   */\n      0x00\n        /* \"#utility.yul\":998:1022   */\n      tag_131\n        /* \"#utility.yul\":1016:1021   */\n      dup3\n        /* \"#utility.yul\":998:1022   */\n      tag_107\n      jump\t// in\n    tag_131:\n        /* \"#utility.yul\":987:1022   */\n      swap1\n      pop\n        /* \"#utility.yul\":932:1028   */\n      swap2\n      swap1\n      pop\n      jump\t// out\n        /* \"#utility.yul\":1034:1156   */\n    tag_109:\n        /* \"#utility.yul\":1107:1131   */\n      tag_133\n        /* \"#utility.yul\":1125:1130   */\n      dup2\n        /* \"#utility.yul\":1107:1131   */\n      tag_108\n      jump\t// in\n    tag_133:\n        /* \"#utility.yul\":1100:1105   */\n      dup2\n        /* \"#utility.yul\":1097:1132   */\n      eq\n        /* \"#utility.yul\":1087:1150   */\n      tag_134\n      jumpi\n        /* \"#utility.yul\":1146:1147   */\n      0x00\n        /* \"#utility.yul\":1143:1144   */\n      dup1\n        /* \"#utility.yul\":1136:1148   */\n      revert\n        /* \"#utility.yul\":1087:1150   */\n    tag_134:\n        /* \"#utility.yul\":1034:1156   */\n      pop\n      jump\t// out\n        /* \"#utility.yul\":1162:1301   */\n    tag_110:\n        /* \"#utility.yul\":1208:1213   */\n      0x00\n        /* \"#utility.yul\":1246:1252   */\n      dup2\n        /* \"#utility.yul\":1233:1253   */\n      calldataload\n        /* \"#utility.yul\":1224:1253   */\n      swap1\n      pop\n        /* \"#utility.yul\":1262:1295   */\n      tag_136\n        /* \"#utility.yul\":1289:1294   */\n      dup2\n        /* \"#utility.yul\":1262:1295   */\n      tag_109\n      jump\t// in\n    tag_136:\n        /* \"#utility.yul\":1162:1301   */\n      swap3\n      swap2\n      pop\n      pop\n      jump\t// out\n        /* \"#utility.yul\":1307:1636   */\n    tag_16:\n        /* \"#utility.yul\":1366:1372   */\n      0x00\n        /* \"#utility.yul\":1415:1417   */\n      0x20\n        /* \"#utility.yul\":1403:1412   */\n      dup3\n        /* \"#utility.yul\":1394:1401   */\n      dup5\n        /* \"#utility.yul\":1390:1413   */\n      sub\n        /* \"#utility.yul\":1386:1418   */\n      slt\n        /* \"#utility.yul\":1383:1502   */\n      iszero\n      tag_138\n      jumpi\n        /* \"#utility.yul\":1421:1500   */\n      tag_139\n      tag_105\n      jump\t// in\n    tag_139:\n        /* \"#utility.yul\":1383:1502   */\n    tag_138:\n        /* \"#utility.yul\":1541:1542   */\n      0x00\n        /* \"#utility.yul\":1566:1619   */\n      tag_140\n        /* \"#utility.yul\":1611:1618   */\n      dup5\n        /* \"#utility.yul\":1602:1608   */\n      dup3\n        /* \"#utility.yul\":1591:1600   */\n      dup6\n        /* \"#utility.yul\":1587:1609   */\n      add\n        /* \"#utility.yul\":1566:1619   */\n      tag_110\n      jump\t// in\n    tag_140:\n        /* \"#utility.yul\":1556:1619   */\n      swap2\n      pop\n        /* \"#utility.yul\":1512:1629   */\n      pop\n        /* \"#utility.yul\":1307:1636   */\n      swap3\n      swap2\n      pop\n      pop\n      jump\t// out\n        /* \"#utility.yul\":1642:1760   */\n    tag_111:\n        /* \"#utility.yul\":1729:1753   */\n      tag_142\n        /* \"#utility.yul\":1747:1752   */\n      dup2\n        /* \"#utility.yul\":1729:1753   */\n      tag_102\n      jump\t// in\n    tag_142:\n        /* \"#utility.yul\":1724:1727   */\n      dup3\n        /* \"#utility.yul\":1717:1754   */\n      mstore\n        /* \"#utility.yul\":1642:1760   */\n      pop\n      pop\n      jump\t// out\n        /* \"#utility.yul\":1766:1988   */\n    tag_19:\n        /* \"#utility.yul\":1859:1863   */\n      0x00\n        /* \"#utility.yul\":1897:1899   */\n      0x20\n        /* \"#utility.yul\":1886:1895   */\n      dup3\n        /* \"#utility.yul\":1882:1900   */\n      add\n        /* \"#utility.yul\":1874:1900   */\n      swap1\n      pop\n        /* \"#utility.yul\":1910:1981   */\n      tag_144\n        /* \"#utility.yul\":1978:1979   */\n      0x00\n        /* \"#utility.yul\":1967:1976   */\n      dup4\n        /* \"#utility.yul\":1963:1980   */\n      add\n        /* \"#utility.yul\":1954:1960   */\n      dup5\n        /* \"#utility.yul\":1910:1981   */\n      tag_111\n      jump\t// in\n    tag_144:\n        /* \"#utility.yul\":1766:1988   */\n      swap3\n      swap2\n      pop\n      pop\n      jump\t// out\n        /* \"#utility.yul\":1994:2116   */\n    tag_112:\n        /* \"#utility.yul\":2067:2091   */\n      tag_146\n        /* \"#utility.yul\":2085:2090   */\n      dup2\n        /* \"#utility.yul\":2067:2091   */\n      tag_102\n      jump\t// in\n    tag_146:\n        /* \"#utility.yul\":2060:2065   */\n      dup2\n        /* \"#utility.yul\":2057:2092   */\n      eq\n        /* \"#utility.yul\":2047:2110   */\n      tag_147\n      jumpi\n        /* \"#utility.yul\":2106:2107   */\n      0x00\n        /* \"#utility.yul\":2103:2104   */\n      dup1\n        /* \"#utility.yul\":2096:2108   */\n      revert\n        /* \"#utility.yul\":2047:2110   */\n    tag_147:\n        /* \"#utility.yul\":1994:2116   */\n      pop\n      jump\t// out\n        /* \"#utility.yul\":2122:2261   */\n    tag_113:\n        /* \"#utility.yul\":2168:2173   */\n      0x00\n        /* \"#utility.yul\":2206:2212   */\n      dup2\n        /* \"#utility.yul\":2193:2213   */\n      calldataload\n        /* \"#utility.yul\":2184:2213   */\n      swap1\n      pop\n        /* \"#utility.yul\":2222:2255   */\n      tag_149\n        /* \"#utility.yul\":2249:2254   */\n      dup2\n        /* \"#utility.yul\":2222:2255   */\n      tag_112\n      jump\t// in\n    tag_149:\n        /* \"#utility.yul\":2122:2261   */\n      swap3\n      swap2\n      pop\n      pop\n      jump\t// out\n        /* \"#utility.yul\":2267:2596   */\n    tag_26:\n        /* \"#utility.yul\":2326:2332   */\n      0x00\n        /* \"#utility.yul\":2375:2377   */\n      0x20\n        /* \"#utility.yul\":2363:2372   */\n      dup3\n        /* \"#utility.yul\":2354:2361   */\n      dup5\n        /* \"#utility.yul\":2350:2373   */\n      sub\n        /* \"#utility.yul\":2346:2378   */\n      slt\n        /* \"#utility.yul\":2343:2462   */\n      iszero\n      tag_151\n      jumpi\n        /* \"#utility.yul\":2381:2460   */\n      tag_152\n      tag_105\n      jump\t// in\n    tag_152:\n        /* \"#utility.yul\":2343:2462   */\n    tag_151:\n        /* \"#utility.yul\":2501:2502   */\n      0x00\n        /* \"#utility.yul\":2526:2579   */\n      tag_153\n        /* \"#utility.yul\":2571:2578   */\n      dup5\n        /* \"#utility.yul\":2562:2568   */\n      dup3\n        /* \"#utility.yul\":2551:2560   */\n      dup6\n        /* \"#utility.yul\":2547:2569   */\n      add\n        /* \"#utility.yul\":2526:2579   */\n      tag_113\n      jump\t// in\n    tag_153:\n        /* \"#utility.yul\":2516:2579   */\n      swap2\n      pop\n        /* \"#utility.yul\":2472:2589   */\n      pop\n        /* \"#utility.yul\":2267:2596   */\n      swap3\n      swap2\n      pop\n      pop\n      jump\t// out\n        /* \"#utility.yul\":2602:2720   */\n    tag_114:\n        /* \"#utility.yul\":2689:2713   */\n      tag_155\n        /* \"#utility.yul\":2707:2712   */\n      dup2\n        /* \"#utility.yul\":2689:2713   */\n      tag_108\n      jump\t// in\n    tag_155:\n        /* \"#utility.yul\":2684:2687   */\n      dup3\n        /* \"#utility.yul\":2677:2714   */\n      mstore\n        /* \"#utility.yul\":2602:2720   */\n      pop\n      pop\n      jump\t// out\n        /* \"#utility.yul\":2726:2948   */\n    tag_29:\n        /* \"#utility.yul\":2819:2823   */\n      0x00\n        /* \"#utility.yul\":2857:2859   */\n      0x20\n        /* \"#utility.yul\":2846:2855   */\n      dup3\n        /* \"#utility.yul\":2842:2860   */\n      add\n        /* \"#utility.yul\":2834:2860   */\n      swap1\n      pop\n        /* \"#utility.yul\":2870:2941   */\n      tag_157\n        /* \"#utility.yul\":2938:2939   */\n      0x00\n        /* \"#utility.yul\":2927:2936   */\n      dup4\n        /* \"#utility.yul\":2923:2940   */\n      add\n        /* \"#utility.yul\":2914:2920   */\n      dup5\n        /* \"#utility.yul\":2870:2941   */\n      tag_114\n      jump\t// in\n    tag_157:\n        /* \"#utility.yul\":2726:2948   */\n      swap3\n      swap2\n      pop\n      pop\n      jump\t// out\n        /* \"#utility.yul\":2954:3134   */\n    tag_40:\n        /* \"#utility.yul\":3002:3079   */\n      0x4e487b7100000000000000000000000000000000000000000000000000000000\n        /* \"#utility.yul\":2999:3000   */\n      0x00\n        /* \"#utility.yul\":2992:3080   */\n      mstore\n        /* \"#utility.yul\":3099:3103   */\n      0x32\n        /* \"#utility.yul\":3096:3097   */\n      0x04\n        /* \"#utility.yul\":3089:3104   */\n      mstore\n        /* \"#utility.yul\":3123:3127   */\n      0x24\n        /* \"#utility.yul\":3120:3121   */\n      0x00\n        /* \"#utility.yul\":3113:3128   */\n      revert\n        /* \"#utility.yul\":3140:3309   */\n    tag_115:\n        /* \"#utility.yul\":3224:3235   */\n      0x00\n        /* \"#utility.yul\":3258:3264   */\n      dup3\n        /* \"#utility.yul\":3253:3256   */\n      dup3\n        /* \"#utility.yul\":3246:3265   */\n      mstore\n        /* \"#utility.yul\":3298:3302   */\n      0x20\n        /* \"#utility.yul\":3293:3296   */\n      dup3\n        /* \"#utility.yul\":3289:3303   */\n      add\n        /* \"#utility.yul\":3274:3303   */\n      swap1\n      pop\n        /* \"#utility.yul\":3140:3309   */\n      swap3\n      swap2\n      pop\n      pop\n      jump\t// out\n        /* \"#utility.yul\":3315:3535   */\n    tag_116:\n        /* \"#utility.yul\":3455:3489   */\n      0x4f6e6c792061646d696e2063616e2063616c6c20746869732066756e6374696f\n        /* \"#utility.yul\":3451:3452   */\n      0x00\n        /* \"#utility.yul\":3443:3449   */\n      dup3\n        /* \"#utility.yul\":3439:3453   */\n      add\n        /* \"#utility.yul\":3432:3490   */\n      mstore\n        /* \"#utility.yul\":3524:3527   */\n      0x6e00000000000000000000000000000000000000000000000000000000000000\n        /* \"#utility.yul\":3519:3521   */\n      0x20\n        /* \"#utility.yul\":3511:3517   */\n      dup3\n        /* \"#utility.yul\":3507:3522   */\n      add\n        /* \"#utility.yul\":3500:3528   */\n      mstore\n        /* \"#utility.yul\":3315:3535   */\n      pop\n      jump\t// out\n        /* \"#utility.yul\":3541:3907   */\n    tag_117:\n        /* \"#utility.yul\":3683:3686   */\n      0x00\n        /* \"#utility.yul\":3704:3771   */\n      tag_162\n        /* \"#utility.yul\":3768:3770   */\n      0x21\n        /* \"#utility.yul\":3763:3766   */\n      dup4\n        /* \"#utility.yul\":3704:3771   */\n      tag_115\n      jump\t// in\n    tag_162:\n        /* \"#utility.yul\":3697:3771   */\n      swap2\n      pop\n        /* \"#utility.yul\":3780:3873   */\n      tag_163\n        /* \"#utility.yul\":3869:3872   */\n      dup3\n        /* \"#utility.yul\":3780:3873   */\n      tag_116\n      jump\t// in\n    tag_163:\n        /* \"#utility.yul\":3898:3900   */\n      0x40\n        /* \"#utility.yul\":3893:3896   */\n      dup3\n        /* \"#utility.yul\":3889:3901   */\n      add\n        /* \"#utility.yul\":3882:3901   */\n      swap1\n      pop\n        /* \"#utility.yul\":3541:3907   */\n      swap2\n      swap1\n      pop\n      jump\t// out\n        /* \"#utility.yul\":3913:4332   */\n    tag_69:\n        /* \"#utility.yul\":4079:4083   */\n      0x00\n        /* \"#utility.yul\":4117:4119   */\n      0x20\n        /* \"#utility.yul\":4106:4115   */\n      dup3\n        /* \"#utility.yul\":4102:4120   */\n      add\n        /* \"#utility.yul\":4094:4120   */\n      swap1\n      pop\n        /* \"#utility.yul\":4166:4175   */\n      dup2\n        /* \"#utility.yul\":4160:4164   */\n      dup2\n        /* \"#utility.yul\":4156:4176   */\n      sub\n        /* \"#utility.yul\":4152:4153   */\n      0x00\n        /* \"#utility.yul\":4141:4150   */\n      dup4\n        /* \"#utility.yul\":4137:4154   */\n      add\n        /* \"#utility.yul\":4130:4177   */\n      mstore\n        /* \"#utility.yul\":4194:4325   */\n      tag_165\n        /* \"#utility.yul\":4320:4324   */\n      dup2\n        /* \"#utility.yul\":4194:4325   */\n      tag_117\n      jump\t// in\n    tag_165:\n        /* \"#utility.yul\":4186:4325   */\n      swap1\n      pop\n        /* \"#utility.yul\":3913:4332   */\n      swap2\n      swap1\n      pop\n      jump\t// out\n\n    auxdata: 0xa2646970667358221220314ee5f745bea5f9dbb695e70056c29027067b39c09362b9bfc73efe419f8fef64736f6c634300081a0033\n}\n",
				"bytecode": {
					"linkReferences": {},
					"object": "6080604052348015600e575f80fd5b50335f806101000a81548173ffffffffffffffffffffffffffffffffffffffff021916908373ffffffffffffffffffffffffffffffffffffffff160217905550610a2e8061005b5f395ff3fe608060405260043610610042575f3560e01c806327e235e3146100a95780633ccfd60b146100e5578063d0e25467146100fb578063f851a44014610137576100a5565b366100a5573460015f3373ffffffffffffffffffffffffffffffffffffffff1673ffffffffffffffffffffffffffffffffffffffff1681526020019081526020015f205f82825461009391906107cc565b925050819055506100a333610161565b005b5f80fd5b3480156100b4575f80fd5b506100cf60048036038101906100ca919061085d565b6103f7565b6040516100dc9190610897565b60405180910390f35b3480156100f0575f80fd5b506100f961040c565b005b348015610106575f80fd5b50610121600480360381019061011c91906108da565b6104fe565b60405161012e9190610914565b60405180910390f35b348015610142575f80fd5b5061014b610532565b6040516101589190610914565b60405180910390f35b5f805b60038110156101ea578273ffffffffffffffffffffffffffffffffffffffff16600282600381106101985761019761092d565b5b015f9054906101000a900473ffffffffffffffffffffffffffffffffffffffff1673ffffffffffffffffffffffffffffffffffffffff16036101dd57600191506101ea565b8080600101915050610164565b50806103e9575f5b60038110156102d1575f73ffffffffffffffffffffffffffffffffffffffff16600282600381106102265761022561092d565b5b015f9054906101000a900473ffffffffffffffffffffffffffffffffffffffff1673ffffffffffffffffffffffffffffffffffffffff16036102c45782600282600381106102775761027661092d565b5b015f6101000a81548173ffffffffffffffffffffffffffffffffffffffff021916908373ffffffffffffffffffffffffffffffffffffffff1602179055506102bd610555565b50506103f4565b80806001019150506101f2565b5060015f600280600381106102e9576102e861092d565b5b015f9054906101000a900473ffffffffffffffffffffffffffffffffffffffff1673ffffffffffffffffffffffffffffffffffffffff1673ffffffffffffffffffffffffffffffffffffffff1681526020019081526020015f205460015f8473ffffffffffffffffffffffffffffffffffffffff1673ffffffffffffffffffffffffffffffffffffffff1681526020019081526020015f205411156103e457816002806003811061039d5761039c61092d565b5b015f6101000a81548173ffffffffffffffffffffffffffffffffffffffff021916908373ffffffffffffffffffffffffffffffffffffffff1602179055506103e3610555565b5b6103f2565b6103f1610555565b5b505b50565b6001602052805f5260405f205f915090505481565b5f8054906101000a900473ffffffffffffffffffffffffffffffffffffffff1673ffffffffffffffffffffffffffffffffffffffff163373ffffffffffffffffffffffffffffffffffffffff1614610499576040517f08c379a0000000000000000000000000000000000000000000000000000000008152600401610490906109da565b60405180910390fd5b5f8054906101000a900473ffffffffffffffffffffffffffffffffffffffff1673ffffffffffffffffffffffffffffffffffffffff166108fc4790811502906040515f60405180830381858888f193505050501580156104fb573d5f803e3d5ffd5b50565b6002816003811061050d575f80fd5b015f915054906101000a900473ffffffffffffffffffffffffffffffffffffffff1681565b5f8054906101000a900473ffffffffffffffffffffffffffffffffffffffff1681565b5f5b6002811015610793575f60018261056e91906107cc565b90505b60038110156107855760015f600283600381106105915761059061092d565b5b015f9054906101000a900473ffffffffffffffffffffffffffffffffffffffff1673ffffffffffffffffffffffffffffffffffffffff1673ffffffffffffffffffffffffffffffffffffffff1681526020019081526020015f205460015f600285600381106106035761060261092d565b5b015f9054906101000a900473ffffffffffffffffffffffffffffffffffffffff1673ffffffffffffffffffffffffffffffffffffffff1673ffffffffffffffffffffffffffffffffffffffff1681526020019081526020015f20541015610778575f600283600381106106795761067861092d565b5b015f9054906101000a900473ffffffffffffffffffffffffffffffffffffffff169050600282600381106106b0576106af61092d565b5b015f9054906101000a900473ffffffffffffffffffffffffffffffffffffffff16600284600381106106e5576106e461092d565b5b015f6101000a81548173ffffffffffffffffffffffffffffffffffffffff021916908373ffffffffffffffffffffffffffffffffffffffff16021790555080600283600381106107385761073761092d565b5b015f6101000a81548173ffffffffffffffffffffffffffffffffffffffff021916908373ffffffffffffffffffffffffffffffffffffffff160217905550505b8080600101915050610571565b508080600101915050610557565b50565b5f819050919050565b7f4e487b71000000000000000000000000000000000000000000000000000000005f52601160045260245ffd5b5f6107d682610796565b91506107e183610796565b92508282019050808211156107f9576107f861079f565b5b92915050565b5f80fd5b5f73ffffffffffffffffffffffffffffffffffffffff82169050919050565b5f61082c82610803565b9050919050565b61083c81610822565b8114610846575f80fd5b50565b5f8135905061085781610833565b92915050565b5f60208284031215610872576108716107ff565b5b5f61087f84828501610849565b91505092915050565b61089181610796565b82525050565b5f6020820190506108aa5f830184610888565b92915050565b6108b981610796565b81146108c3575f80fd5b50565b5f813590506108d4816108b0565b92915050565b5f602082840312156108ef576108ee6107ff565b5b5f6108fc848285016108c6565b91505092915050565b61090e81610822565b82525050565b5f6020820190506109275f830184610905565b92915050565b7f4e487b71000000000000000000000000000000000000000000000000000000005f52603260045260245ffd5b5f82825260208201905092915050565b7f4f6e6c792061646d696e2063616e2063616c6c20746869732066756e6374696f5f8201527f6e00000000000000000000000000000000000000000000000000000000000000602082015250565b5f6109c460218361095a565b91506109cf8261096a565b604082019050919050565b5f6020820190508181035f8301526109f1816109b8565b905091905056fea2646970667358221220314ee5f745bea5f9dbb695e70056c29027067b39c09362b9bfc73efe419f8fef64736f6c634300081a0033",
					"opcodes": "PUSH1 0x80 PUSH1 0x40 MSTORE CALLVALUE DUP1 ISZERO PUSH1 0xE JUMPI PUSH0 DUP1 REVERT JUMPDEST POP CALLER PUSH0 DUP1 PUSH2 0x100 EXP DUP2 SLOAD DUP2 PUSH20 0xFFFFFFFFFFFFFFFFFFFFFFFFFFFFFFFFFFFFFFFF MUL NOT AND SWAP1 DUP4 PUSH20 0xFFFFFFFFFFFFFFFFFFFFFFFFFFFFFFFFFFFFFFFF AND MUL OR SWAP1 SSTORE POP PUSH2 0xA2E DUP1 PUSH2 0x5B PUSH0 CODECOPY PUSH0 RETURN INVALID PUSH1 0x80 PUSH1 0x40 MSTORE PUSH1 0x4 CALLDATASIZE LT PUSH2 0x42 JUMPI PUSH0 CALLDATALOAD PUSH1 0xE0 SHR DUP1 PUSH4 0x27E235E3 EQ PUSH2 0xA9 JUMPI DUP1 PUSH4 0x3CCFD60B EQ PUSH2 0xE5 JUMPI DUP1 PUSH4 0xD0E25467 EQ PUSH2 0xFB JUMPI DUP1 PUSH4 0xF851A440 EQ PUSH2 0x137 JUMPI PUSH2 0xA5 JUMP JUMPDEST CALLDATASIZE PUSH2 0xA5 JUMPI CALLVALUE PUSH1 0x1 PUSH0 CALLER PUSH20 0xFFFFFFFFFFFFFFFFFFFFFFFFFFFFFFFFFFFFFFFF AND PUSH20 0xFFFFFFFFFFFFFFFFFFFFFFFFFFFFFFFFFFFFFFFF AND DUP2 MSTORE PUSH1 0x20 ADD SWAP1 DUP2 MSTORE PUSH1 0x20 ADD PUSH0 KECCAK256 PUSH0 DUP3 DUP3 SLOAD PUSH2 0x93 SWAP2 SWAP1 PUSH2 0x7CC JUMP JUMPDEST SWAP3 POP POP DUP2 SWAP1 SSTORE POP PUSH2 0xA3 CALLER PUSH2 0x161 JUMP JUMPDEST STOP JUMPDEST PUSH0 DUP1 REVERT JUMPDEST CALLVALUE DUP1 ISZERO PUSH2 0xB4 JUMPI PUSH0 DUP1 REVERT JUMPDEST POP PUSH2 0xCF PUSH1 0x4 DUP1 CALLDATASIZE SUB DUP2 ADD SWAP1 PUSH2 0xCA SWAP2 SWAP1 PUSH2 0x85D JUMP JUMPDEST PUSH2 0x3F7 JUMP JUMPDEST PUSH1 0x40 MLOAD PUSH2 0xDC SWAP2 SWAP1 PUSH2 0x897 JUMP JUMPDEST PUSH1 0x40 MLOAD DUP1 SWAP2 SUB SWAP1 RETURN JUMPDEST CALLVALUE DUP1 ISZERO PUSH2 0xF0 JUMPI PUSH0 DUP1 REVERT JUMPDEST POP PUSH2 0xF9 PUSH2 0x40C JUMP JUMPDEST STOP JUMPDEST CALLVALUE DUP1 ISZERO PUSH2 0x106 JUMPI PUSH0 DUP1 REVERT JUMPDEST POP PUSH2 0x121 PUSH1 0x4 DUP1 CALLDATASIZE SUB DUP2 ADD SWAP1 PUSH2 0x11C SWAP2 SWAP1 PUSH2 0x8DA JUMP JUMPDEST PUSH2 0x4FE JUMP JUMPDEST PUSH1 0x40 MLOAD PUSH2 0x12E SWAP2 SWAP1 PUSH2 0x914 JUMP JUMPDEST PUSH1 0x40 MLOAD DUP1 SWAP2 SUB SWAP1 RETURN JUMPDEST CALLVALUE DUP1 ISZERO PUSH2 0x142 JUMPI PUSH0 DUP1 REVERT JUMPDEST POP PUSH2 0x14B PUSH2 0x532 JUMP JUMPDEST PUSH1 0x40 MLOAD PUSH2 0x158 SWAP2 SWAP1 PUSH2 0x914 JUMP JUMPDEST PUSH1 0x40 MLOAD DUP1 SWAP2 SUB SWAP1 RETURN JUMPDEST PUSH0 DUP1 JUMPDEST PUSH1 0x3 DUP2 LT ISZERO PUSH2 0x1EA JUMPI DUP3 PUSH20 0xFFFFFFFFFFFFFFFFFFFFFFFFFFFFFFFFFFFFFFFF AND PUSH1 0x2 DUP3 PUSH1 0x3 DUP2 LT PUSH2 0x198 JUMPI PUSH2 0x197 PUSH2 0x92D JUMP JUMPDEST JUMPDEST ADD PUSH0 SWAP1 SLOAD SWAP1 PUSH2 0x100 EXP SWAP1 DIV PUSH20 0xFFFFFFFFFFFFFFFFFFFFFFFFFFFFFFFFFFFFFFFF AND PUSH20 0xFFFFFFFFFFFFFFFFFFFFFFFFFFFFFFFFFFFFFFFF AND SUB PUSH2 0x1DD JUMPI PUSH1 0x1 SWAP2 POP PUSH2 0x1EA JUMP JUMPDEST DUP1 DUP1 PUSH1 0x1 ADD SWAP2 POP POP PUSH2 0x164 JUMP JUMPDEST POP DUP1 PUSH2 0x3E9 JUMPI PUSH0 JUMPDEST PUSH1 0x3 DUP2 LT ISZERO PUSH2 0x2D1 JUMPI PUSH0 PUSH20 0xFFFFFFFFFFFFFFFFFFFFFFFFFFFFFFFFFFFFFFFF AND PUSH1 0x2 DUP3 PUSH1 0x3 DUP2 LT PUSH2 0x226 JUMPI PUSH2 0x225 PUSH2 0x92D JUMP JUMPDEST JUMPDEST ADD PUSH0 SWAP1 SLOAD SWAP1 PUSH2 0x100 EXP SWAP1 DIV PUSH20 0xFFFFFFFFFFFFFFFFFFFFFFFFFFFFFFFFFFFFFFFF AND PUSH20 0xFFFFFFFFFFFFFFFFFFFFFFFFFFFFFFFFFFFFFFFF AND SUB PUSH2 0x2C4 JUMPI DUP3 PUSH1 0x2 DUP3 PUSH1 0x3 DUP2 LT PUSH2 0x277 JUMPI PUSH2 0x276 PUSH2 0x92D JUMP JUMPDEST JUMPDEST ADD PUSH0 PUSH2 0x100 EXP DUP2 SLOAD DUP2 PUSH20 0xFFFFFFFFFFFFFFFFFFFFFFFFFFFFFFFFFFFFFFFF MUL NOT AND SWAP1 DUP4 PUSH20 0xFFFFFFFFFFFFFFFFFFFFFFFFFFFFFFFFFFFFFFFF AND MUL OR SWAP1 SSTORE POP PUSH2 0x2BD PUSH2 0x555 JUMP JUMPDEST POP POP PUSH2 0x3F4 JUMP JUMPDEST DUP1 DUP1 PUSH1 0x1 ADD SWAP2 POP POP PUSH2 0x1F2 JUMP JUMPDEST POP PUSH1 0x1 PUSH0 PUSH1 0x2 DUP1 PUSH1 0x3 DUP2 LT PUSH2 0x2E9 JUMPI PUSH2 0x2E8 PUSH2 0x92D JUMP JUMPDEST JUMPDEST ADD PUSH0 SWAP1 SLOAD SWAP1 PUSH2 0x100 EXP SWAP1 DIV PUSH20 0xFFFFFFFFFFFFFFFFFFFFFFFFFFFFFFFFFFFFFFFF AND PUSH20 0xFFFFFFFFFFFFFFFFFFFFFFFFFFFFFFFFFFFFFFFF AND PUSH20 0xFFFFFFFFFFFFFFFFFFFFFFFFFFFFFFFFFFFFFFFF AND DUP2 MSTORE PUSH1 0x20 ADD SWAP1 DUP2 MSTORE PUSH1 0x20 ADD PUSH0 KECCAK256 SLOAD PUSH1 0x1 PUSH0 DUP5 PUSH20 0xFFFFFFFFFFFFFFFFFFFFFFFFFFFFFFFFFFFFFFFF AND PUSH20 0xFFFFFFFFFFFFFFFFFFFFFFFFFFFFFFFFFFFFFFFF AND DUP2 MSTORE PUSH1 0x20 ADD SWAP1 DUP2 MSTORE PUSH1 0x20 ADD PUSH0 KECCAK256 SLOAD GT ISZERO PUSH2 0x3E4 JUMPI DUP2 PUSH1 0x2 DUP1 PUSH1 0x3 DUP2 LT PUSH2 0x39D JUMPI PUSH2 0x39C PUSH2 0x92D JUMP JUMPDEST JUMPDEST ADD PUSH0 PUSH2 0x100 EXP DUP2 SLOAD DUP2 PUSH20 0xFFFFFFFFFFFFFFFFFFFFFFFFFFFFFFFFFFFFFFFF MUL NOT AND SWAP1 DUP4 PUSH20 0xFFFFFFFFFFFFFFFFFFFFFFFFFFFFFFFFFFFFFFFF AND MUL OR SWAP1 SSTORE POP PUSH2 0x3E3 PUSH2 0x555 JUMP JUMPDEST JUMPDEST PUSH2 0x3F2 JUMP JUMPDEST PUSH2 0x3F1 PUSH2 0x555 JUMP JUMPDEST JUMPDEST POP JUMPDEST POP JUMP JUMPDEST PUSH1 0x1 PUSH1 0x20 MSTORE DUP1 PUSH0 MSTORE PUSH1 0x40 PUSH0 KECCAK256 PUSH0 SWAP2 POP SWAP1 POP SLOAD DUP2 JUMP JUMPDEST PUSH0 DUP1 SLOAD SWAP1 PUSH2 0x100 EXP SWAP1 DIV PUSH20 0xFFFFFFFFFFFFFFFFFFFFFFFFFFFFFFFFFFFFFFFF AND PUSH20 0xFFFFFFFFFFFFFFFFFFFFFFFFFFFFFFFFFFFFFFFF AND CALLER PUSH20 0xFFFFFFFFFFFFFFFFFFFFFFFFFFFFFFFFFFFFFFFF AND EQ PUSH2 0x499 JUMPI PUSH1 0x40 MLOAD PUSH32 0x8C379A000000000000000000000000000000000000000000000000000000000 DUP2 MSTORE PUSH1 0x4 ADD PUSH2 0x490 SWAP1 PUSH2 0x9DA JUMP JUMPDEST PUSH1 0x40 MLOAD DUP1 SWAP2 SUB SWAP1 REVERT JUMPDEST PUSH0 DUP1 SLOAD SWAP1 PUSH2 0x100 EXP SWAP1 DIV PUSH20 0xFFFFFFFFFFFFFFFFFFFFFFFFFFFFFFFFFFFFFFFF AND PUSH20 0xFFFFFFFFFFFFFFFFFFFFFFFFFFFFFFFFFFFFFFFF AND PUSH2 0x8FC SELFBALANCE SWAP1 DUP2 ISZERO MUL SWAP1 PUSH1 0x40 MLOAD PUSH0 PUSH1 0x40 MLOAD DUP1 DUP4 SUB DUP2 DUP6 DUP9 DUP9 CALL SWAP4 POP POP POP POP ISZERO DUP1 ISZERO PUSH2 0x4FB JUMPI RETURNDATASIZE PUSH0 DUP1 RETURNDATACOPY RETURNDATASIZE PUSH0 REVERT JUMPDEST POP JUMP JUMPDEST PUSH1 0x2 DUP2 PUSH1 0x3 DUP2 LT PUSH2 0x50D JUMPI PUSH0 DUP1 REVERT JUMPDEST ADD PUSH0 SWAP2 POP SLOAD SWAP1 PUSH2 0x100 EXP SWAP1 DIV PUSH20 0xFFFFFFFFFFFFFFFFFFFFFFFFFFFFFFFFFFFFFFFF AND DUP2 JUMP JUMPDEST PUSH0 DUP1 SLOAD SWAP1 PUSH2 0x100 EXP SWAP1 DIV PUSH20 0xFFFFFFFFFFFFFFFFFFFFFFFFFFFFFFFFFFFFFFFF AND DUP2 JUMP JUMPDEST PUSH0 JUMPDEST PUSH1 0x2 DUP2 LT ISZERO PUSH2 0x793 JUMPI PUSH0 PUSH1 0x1 DUP3 PUSH2 0x56E SWAP2 SWAP1 PUSH2 0x7CC JUMP JUMPDEST SWAP1 POP JUMPDEST PUSH1 0x3 DUP2 LT ISZERO PUSH2 0x785 JUMPI PUSH1 0x1 PUSH0 PUSH1 0x2 DUP4 PUSH1 0x3 DUP2 LT PUSH2 0x591 JUMPI PUSH2 0x590 PUSH2 0x92D JUMP JUMPDEST JUMPDEST ADD PUSH0 SWAP1 SLOAD SWAP1 PUSH2 0x100 EXP SWAP1 DIV PUSH20 0xFFFFFFFFFFFFFFFFFFFFFFFFFFFFFFFFFFFFFFFF AND PUSH20 0xFFFFFFFFFFFFFFFFFFFFFFFFFFFFFFFFFFFFFFFF AND PUSH20 0xFFFFFFFFFFFFFFFFFFFFFFFFFFFFFFFFFFFFFFFF AND DUP2 MSTORE PUSH1 0x20 ADD SWAP1 DUP2 MSTORE PUSH1 0x20 ADD PUSH0 KECCAK256 SLOAD PUSH1 0x1 PUSH0 PUSH1 0x2 DUP6 PUSH1 0x3 DUP2 LT PUSH2 0x603 JUMPI PUSH2 0x602 PUSH2 0x92D JUMP JUMPDEST JUMPDEST ADD PUSH0 SWAP1 SLOAD SWAP1 PUSH2 0x100 EXP SWAP1 DIV PUSH20 0xFFFFFFFFFFFFFFFFFFFFFFFFFFFFFFFFFFFFFFFF AND PUSH20 0xFFFFFFFFFFFFFFFFFFFFFFFFFFFFFFFFFFFFFFFF AND PUSH20 0xFFFFFFFFFFFFFFFFFFFFFFFFFFFFFFFFFFFFFFFF AND DUP2 MSTORE PUSH1 0x20 ADD SWAP1 DUP2 MSTORE PUSH1 0x20 ADD PUSH0 KECCAK256 SLOAD LT ISZERO PUSH2 0x778 JUMPI PUSH0 PUSH1 0x2 DUP4 PUSH1 0x3 DUP2 LT PUSH2 0x679 JUMPI PUSH2 0x678 PUSH2 0x92D JUMP JUMPDEST JUMPDEST ADD PUSH0 SWAP1 SLOAD SWAP1 PUSH2 0x100 EXP SWAP1 DIV PUSH20 0xFFFFFFFFFFFFFFFFFFFFFFFFFFFFFFFFFFFFFFFF AND SWAP1 POP PUSH1 0x2 DUP3 PUSH1 0x3 DUP2 LT PUSH2 0x6B0 JUMPI PUSH2 0x6AF PUSH2 0x92D JUMP JUMPDEST JUMPDEST ADD PUSH0 SWAP1 SLOAD SWAP1 PUSH2 0x100 EXP SWAP1 DIV PUSH20 0xFFFFFFFFFFFFFFFFFFFFFFFFFFFFFFFFFFFFFFFF AND PUSH1 0x2 DUP5 PUSH1 0x3 DUP2 LT PUSH2 0x6E5 JUMPI PUSH2 0x6E4 PUSH2 0x92D JUMP JUMPDEST JUMPDEST ADD PUSH0 PUSH2 0x100 EXP DUP2 SLOAD DUP2 PUSH20 0xFFFFFFFFFFFFFFFFFFFFFFFFFFFFFFFFFFFFFFFF MUL NOT AND SWAP1 DUP4 PUSH20 0xFFFFFFFFFFFFFFFFFFFFFFFFFFFFFFFFFFFFFFFF AND MUL OR SWAP1 SSTORE POP DUP1 PUSH1 0x2 DUP4 PUSH1 0x3 DUP2 LT PUSH2 0x738 JUMPI PUSH2 0x737 PUSH2 0x92D JUMP JUMPDEST JUMPDEST ADD PUSH0 PUSH2 0x100 EXP DUP2 SLOAD DUP2 PUSH20 0xFFFFFFFFFFFFFFFFFFFFFFFFFFFFFFFFFFFFFFFF MUL NOT AND SWAP1 DUP4 PUSH20 0xFFFFFFFFFFFFFFFFFFFFFFFFFFFFFFFFFFFFFFFF AND MUL OR SWAP1 SSTORE POP POP JUMPDEST DUP1 DUP1 PUSH1 0x1 ADD SWAP2 POP POP PUSH2 0x571 JUMP JUMPDEST POP DUP1 DUP1 PUSH1 0x1 ADD SWAP2 POP POP PUSH2 0x557 JUMP JUMPDEST POP JUMP JUMPDEST PUSH0 DUP2 SWAP1 POP SWAP2 SWAP1 POP JUMP JUMPDEST PUSH32 0x4E487B7100000000000000000000000000000000000000000000000000000000 PUSH0 MSTORE PUSH1 0x11 PUSH1 0x4 MSTORE PUSH1 0x24 PUSH0 REVERT JUMPDEST PUSH0 PUSH2 0x7D6 DUP3 PUSH2 0x796 JUMP JUMPDEST SWAP2 POP PUSH2 0x7E1 DUP4 PUSH2 0x796 JUMP JUMPDEST SWAP3 POP DUP3 DUP3 ADD SWAP1 POP DUP1 DUP3 GT ISZERO PUSH2 0x7F9 JUMPI PUSH2 0x7F8 PUSH2 0x79F JUMP JUMPDEST JUMPDEST SWAP3 SWAP2 POP POP JUMP JUMPDEST PUSH0 DUP1 REVERT JUMPDEST PUSH0 PUSH20 0xFFFFFFFFFFFFFFFFFFFFFFFFFFFFFFFFFFFFFFFF DUP3 AND SWAP1 POP SWAP2 SWAP1 POP JUMP JUMPDEST PUSH0 PUSH2 0x82C DUP3 PUSH2 0x803 JUMP JUMPDEST SWAP1 POP SWAP2 SWAP1 POP JUMP JUMPDEST PUSH2 0x83C DUP2 PUSH2 0x822 JUMP JUMPDEST DUP2 EQ PUSH2 0x846 JUMPI PUSH0 DUP1 REVERT JUMPDEST POP JUMP JUMPDEST PUSH0 DUP2 CALLDATALOAD SWAP1 POP PUSH2 0x857 DUP2 PUSH2 0x833 JUMP JUMPDEST SWAP3 SWAP2 POP POP JUMP JUMPDEST PUSH0 PUSH1 0x20 DUP3 DUP5 SUB SLT ISZERO PUSH2 0x872 JUMPI PUSH2 0x871 PUSH2 0x7FF JUMP JUMPDEST JUMPDEST PUSH0 PUSH2 0x87F DUP5 DUP3 DUP6 ADD PUSH2 0x849 JUMP JUMPDEST SWAP2 POP POP SWAP3 SWAP2 POP POP JUMP JUMPDEST PUSH2 0x891 DUP2 PUSH2 0x796 JUMP JUMPDEST DUP3 MSTORE POP POP JUMP JUMPDEST PUSH0 PUSH1 0x20 DUP3 ADD SWAP1 POP PUSH2 0x8AA PUSH0 DUP4 ADD DUP5 PUSH2 0x888 JUMP JUMPDEST SWAP3 SWAP2 POP POP JUMP JUMPDEST PUSH2 0x8B9 DUP2 PUSH2 0x796 JUMP JUMPDEST DUP2 EQ PUSH2 0x8C3 JUMPI PUSH0 DUP1 REVERT JUMPDEST POP JUMP JUMPDEST PUSH0 DUP2 CALLDATALOAD SWAP1 POP PUSH2 0x8D4 DUP2 PUSH2 0x8B0 JUMP JUMPDEST SWAP3 SWAP2 POP POP JUMP JUMPDEST PUSH0 PUSH1 0x20 DUP3 DUP5 SUB SLT ISZERO PUSH2 0x8EF JUMPI PUSH2 0x8EE PUSH2 0x7FF JUMP JUMPDEST JUMPDEST PUSH0 PUSH2 0x8FC DUP5 DUP3 DUP6 ADD PUSH2 0x8C6 JUMP JUMPDEST SWAP2 POP POP SWAP3 SWAP2 POP POP JUMP JUMPDEST PUSH2 0x90E DUP2 PUSH2 0x822 JUMP JUMPDEST DUP3 MSTORE POP POP JUMP JUMPDEST PUSH0 PUSH1 0x20 DUP3 ADD SWAP1 POP PUSH2 0x927 PUSH0 DUP4 ADD DUP5 PUSH2 0x905 JUMP JUMPDEST SWAP3 SWAP2 POP POP JUMP JUMPDEST PUSH32 0x4E487B7100000000000000000000000000000000000000000000000000000000 PUSH0 MSTORE PUSH1 0x32 PUSH1 0x4 MSTORE PUSH1 0x24 PUSH0 REVERT JUMPDEST PUSH0 DUP3 DUP3 MSTORE PUSH1 0x20 DUP3 ADD SWAP1 POP SWAP3 SWAP2 POP POP JUMP JUMPDEST PUSH32 0x4F6E6C792061646D696E2063616E2063616C6C20746869732066756E6374696F PUSH0 DUP3 ADD MSTORE PUSH32 0x6E00000000000000000000000000000000000000000000000000000000000000 PUSH1 0x20 DUP3 ADD MSTORE POP JUMP JUMPDEST PUSH0 PUSH2 0x9C4 PUSH1 0x21 DUP4 PUSH2 0x95A JUMP JUMPDEST SWAP2 POP PUSH2 0x9CF DUP3 PUSH2 0x96A JUMP JUMPDEST PUSH1 0x40 DUP3 ADD SWAP1 POP SWAP2 SWAP1 POP JUMP JUMPDEST PUSH0 PUSH1 0x20 DUP3 ADD SWAP1 POP DUP2 DUP2 SUB PUSH0 DUP4 ADD MSTORE PUSH2 0x9F1 DUP2 PUSH2 0x9B8 JUMP JUMPDEST SWAP1 POP SWAP2 SWAP1 POP JUMP INVALID LOG2 PUSH5 0x6970667358 0x22 SLT KECCAK256 BALANCE 0x4E 0xE5 0xF7 GASLIMIT 0xBE 0xA5 0xF9 0xDB 0xB6 SWAP6 0xE7 STOP JUMP 0xC2 SWAP1 0x27 MOD PUSH28 0x39C09362B9BFC73EFE419F8FEF64736F6C634300081A003300000000 "
				},
				"gasEstimates": {
					"creation": {
						"codeDepositCost": "521200",
						"executionCost": "24819",
						"totalCost": "546019"
					},
					"external": {
						"admin()": "2549",
						"balances(address)": "2780",
						"top3Depositors(uint256)": "2817",
						"withdraw()": "infinite"
					},
					"internal": {
						"sortTop3Depositors()": "infinite",
						"updateTop3Depositors(address)": "infinite"
					}
				},
				"methodIdentifiers": {
					"admin()": "f851a440",
					"balances(address)": "27e235e3",
					"top3Depositors(uint256)": "d0e25467",
					"withdraw()": "3ccfd60b"
				}
			},
			"storageLayout": {
				"storage": [
					{
						"astId": 3,
						"contract": "third_day/bankContract.sol:Bank",
						"label": "admin",
						"offset": 0,
						"slot": "0",
						"type": "t_address"
					},
					{
						"astId": 7,
						"contract": "third_day/bankContract.sol:Bank",
						"label": "balances",
						"offset": 0,
						"slot": "1",
						"type": "t_mapping(t_address,t_uint256)"
					},
					{
						"astId": 11,
						"contract": "third_day/bankContract.sol:Bank",
						"label": "top3Depositors",
						"offset": 0,
						"slot": "2",
						"type": "t_array(t_address)3_storage"
					}
				],
				"types": {
					"t_address": {
						"encoding": "inplace",
						"label": "address",
						"numberOfBytes": "20"
					},
					"t_array(t_address)3_storage": {
						"base": "t_address",
						"encoding": "inplace",
						"label": "address[3]",
						"numberOfBytes": "96"
					},
					"t_mapping(t_address,t_uint256)": {
						"encoding": "mapping",
						"key": "t_address",
						"label": "mapping(address => uint256)",
						"numberOfBytes": "32",
						"value": "t_uint256"
					},
					"t_uint256": {
						"encoding": "inplace",
						"label": "uint256",
						"numberOfBytes": "32"
					}
				}
			},
			"userdoc": {
				"kind": "user",
				"methods": {},
				"version": 1
			}
		}
	}
}